{
  "contractName": "Sale",
  "abi": [
    {
      "inputs": [
        {
          "internalType": "address",
          "name": "_admin",
          "type": "address"
        },
        {
          "internalType": "address",
          "name": "_seller",
          "type": "address"
        },
        {
          "internalType": "uint256",
          "name": "_tokenId",
          "type": "uint256"
        },
        {
          "internalType": "uint256",
          "name": "_purchasePrice",
          "type": "uint256"
        },
        {
          "internalType": "address",
          "name": "_currencyAddress",
          "type": "address"
        },
        {
          "internalType": "address",
          "name": "_nftAddress",
          "type": "address"
        }
      ],
      "stateMutability": "nonpayable",
      "type": "constructor"
    },
    {
      "anonymous": false,
      "inputs": [
        {
          "indexed": false,
          "internalType": "address",
          "name": "winner",
          "type": "address"
        },
        {
          "indexed": false,
          "internalType": "uint256",
          "name": "amount",
          "type": "uint256"
        }
      ],
      "name": "SaleEnded",
      "type": "event"
    },
    {
      "inputs": [],
      "name": "buyer",
      "outputs": [
        {
          "internalType": "address",
          "name": "",
          "type": "address"
        }
      ],
      "stateMutability": "view",
      "type": "function"
    },
    {
      "inputs": [],
      "name": "check",
      "outputs": [
        {
          "internalType": "bool",
          "name": "",
          "type": "bool"
        }
      ],
      "stateMutability": "view",
      "type": "function"
    },
    {
      "inputs": [],
      "name": "currencyAddress",
      "outputs": [
        {
          "internalType": "address",
          "name": "",
          "type": "address"
        }
      ],
      "stateMutability": "view",
      "type": "function"
    },
    {
      "inputs": [],
      "name": "ended",
      "outputs": [
        {
          "internalType": "bool",
          "name": "",
          "type": "bool"
        }
      ],
      "stateMutability": "view",
      "type": "function"
    },
    {
      "inputs": [],
      "name": "erc20Contract",
      "outputs": [
        {
          "internalType": "contract IERC20",
          "name": "",
          "type": "address"
        }
      ],
      "stateMutability": "view",
      "type": "function"
    },
    {
      "inputs": [],
      "name": "erc721Contract",
      "outputs": [
        {
          "internalType": "contract IERC721",
          "name": "",
          "type": "address"
        }
      ],
      "stateMutability": "view",
      "type": "function"
    },
    {
      "inputs": [],
      "name": "nftAddress",
      "outputs": [
        {
          "internalType": "address",
          "name": "",
          "type": "address"
        }
      ],
      "stateMutability": "view",
      "type": "function"
    },
    {
      "inputs": [],
      "name": "purchasePrice",
      "outputs": [
        {
          "internalType": "uint256",
          "name": "",
          "type": "uint256"
        }
      ],
      "stateMutability": "view",
      "type": "function"
    },
    {
      "inputs": [],
      "name": "seller",
      "outputs": [
        {
          "internalType": "address",
          "name": "",
          "type": "address"
        }
      ],
      "stateMutability": "view",
      "type": "function"
    },
    {
      "inputs": [],
      "name": "tokenId",
      "outputs": [
        {
          "internalType": "uint256",
          "name": "",
          "type": "uint256"
        }
      ],
      "stateMutability": "view",
      "type": "function"
    },
    {
      "inputs": [
        {
          "internalType": "address",
          "name": "_buyer",
          "type": "address"
        }
      ],
      "name": "purchase",
      "outputs": [],
      "stateMutability": "nonpayable",
      "type": "function"
    },
    {
      "inputs": [],
      "name": "confirmItem",
      "outputs": [],
      "stateMutability": "nonpayable",
      "type": "function"
    },
    {
      "inputs": [],
      "name": "cancelSales",
      "outputs": [],
      "stateMutability": "nonpayable",
      "type": "function"
    },
    {
      "inputs": [],
      "name": "getAddress",
      "outputs": [
        {
          "internalType": "address",
          "name": "",
          "type": "address"
        }
      ],
      "stateMutability": "view",
      "type": "function"
    },
    {
      "inputs": [],
      "name": "getSeller",
      "outputs": [
        {
          "internalType": "address",
          "name": "",
          "type": "address"
        }
      ],
      "stateMutability": "view",
      "type": "function"
    },
    {
      "inputs": [],
      "name": "gettokenId",
      "outputs": [
        {
          "internalType": "uint256",
          "name": "",
          "type": "uint256"
        }
      ],
      "stateMutability": "view",
      "type": "function"
    },
    {
      "inputs": [],
      "name": "getSaleInfo",
      "outputs": [
        {
          "internalType": "uint256",
          "name": "",
          "type": "uint256"
        },
        {
          "internalType": "uint256",
          "name": "",
          "type": "uint256"
        },
        {
          "internalType": "address",
          "name": "",
          "type": "address"
        },
        {
          "internalType": "address",
          "name": "",
          "type": "address"
        }
      ],
      "stateMutability": "view",
      "type": "function"
    }
  ],
  "bytecode": "0x60806040523480156200001157600080fd5b5060405162000ed438038062000ed48339818101604052810190620000379190620002a4565b600083116200004557600080fd5b8360048190555082600381905550846000806101000a81548173ffffffffffffffffffffffffffffffffffffffff021916908373ffffffffffffffffffffffffffffffffffffffff16021790555085600260006101000a81548173ffffffffffffffffffffffffffffffffffffffff021916908373ffffffffffffffffffffffffffffffffffffffff16021790555081600560006101000a81548173ffffffffffffffffffffffffffffffffffffffff021916908373ffffffffffffffffffffffffffffffffffffffff16021790555080600660006101000a81548173ffffffffffffffffffffffffffffffffffffffff021916908373ffffffffffffffffffffffffffffffffffffffff1602179055506000600660146101000a81548160ff02191690831515021790555081600760006101000a81548173ffffffffffffffffffffffffffffffffffffffff021916908373ffffffffffffffffffffffffffffffffffffffff16021790555080600860006101000a81548173ffffffffffffffffffffffffffffffffffffffff021916908373ffffffffffffffffffffffffffffffffffffffff16021790555050505050505062000340565b600080fd5b600073ffffffffffffffffffffffffffffffffffffffff82169050919050565b6000620002318262000204565b9050919050565b620002438162000224565b81146200024f57600080fd5b50565b600081519050620002638162000238565b92915050565b6000819050919050565b6200027e8162000269565b81146200028a57600080fd5b50565b6000815190506200029e8162000273565b92915050565b60008060008060008060c08789031215620002c457620002c3620001ff565b5b6000620002d489828a0162000252565b9650506020620002e789828a0162000252565b9550506040620002fa89828a016200028d565b94505060606200030d89828a016200028d565b93505060806200032089828a0162000252565b92505060a06200033389828a0162000252565b9150509295509295509295565b610b8480620003506000396000f3fe608060405234801561001057600080fd5b506004361061010b5760003560e01c80637150d8ae116100a2578063d7c97fb411610071578063d7c97fb41461024e578063db83694c1461026c578063dbd0e1b61461028d578063defd6c5f146102ab578063e50590ae146102c95761010b565b80637150d8ae146101ea578063903e329c14610208578063919840ad14610212578063a8f6c913146102305761010b565b80631c1cb323116100de5780631c1cb3231461017457806325b31a971461019257806338cc4831146101ae5780635bf8633a146101cc5761010b565b806308551a53146101105780630a7f463f1461012e57806312fa6feb1461013857806317d70f7c14610156575b600080fd5b6101186102e7565b60405161012591906108e0565b60405180910390f35b61013661030b565b005b61014061030d565b60405161014d9190610916565b60405180910390f35b61015e610320565b60405161016b919061094a565b60405180910390f35b61017c610326565b60405161018991906108e0565b60405180910390f35b6101ac60048036038101906101a79190610996565b61034c565b005b6101b6610686565b6040516101c391906108e0565b60405180910390f35b6101d461068e565b6040516101e191906108e0565b60405180910390f35b6101f26106b4565b6040516101ff91906108e0565b60405180910390f35b6102106106da565b005b61021a6107a7565b6040516102279190610916565b60405180910390f35b6102386107ba565b6040516102459190610a22565b60405180910390f35b6102566107e0565b6040516102639190610a5e565b60405180910390f35b610274610806565b6040516102849493929190610a79565b60405180910390f35b610295610866565b6040516102a291906108e0565b60405180910390f35b6102b361088f565b6040516102c0919061094a565b60405180910390f35b6102d1610895565b6040516102de919061094a565b60405180910390f35b60008054906101000a900473ffffffffffffffffffffffffffffffffffffffff1681565b565b600660149054906101000a900460ff1681565b60045481565b600560009054906101000a900473ffffffffffffffffffffffffffffffffffffffff1681565b80600160006101000a81548173ffffffffffffffffffffffffffffffffffffffff021916908373ffffffffffffffffffffffffffffffffffffffff16021790555060008054906101000a900473ffffffffffffffffffffffffffffffffffffffff1673ffffffffffffffffffffffffffffffffffffffff16600160009054906101000a900473ffffffffffffffffffffffffffffffffffffffff1673ffffffffffffffffffffffffffffffffffffffff16141561040857600080fd5b600760009054906101000a900473ffffffffffffffffffffffffffffffffffffffff1673ffffffffffffffffffffffffffffffffffffffff166323b872dd600160009054906101000a900473ffffffffffffffffffffffffffffffffffffffff1660008054906101000a900473ffffffffffffffffffffffffffffffffffffffff166003546040518463ffffffff1660e01b81526004016104ab93929190610abe565b6020604051808303816000875af11580156104ca573d6000803e3d6000fd5b505050506040513d601f19601f820116820180604052508101906104ee9190610b21565b50600860009054906101000a900473ffffffffffffffffffffffffffffffffffffffff1673ffffffffffffffffffffffffffffffffffffffff166323b872dd60008054906101000a900473ffffffffffffffffffffffffffffffffffffffff16600160009054906101000a900473ffffffffffffffffffffffffffffffffffffffff166004546040518463ffffffff1660e01b815260040161059293929190610abe565b600060405180830381600087803b1580156105ac57600080fd5b505af11580156105c0573d6000803e3d6000fd5b50505050600160009054906101000a900473ffffffffffffffffffffffffffffffffffffffff166000806101000a81548173ffffffffffffffffffffffffffffffffffffffff021916908373ffffffffffffffffffffffffffffffffffffffff1602179055506000600160006101000a81548173ffffffffffffffffffffffffffffffffffffffff021916908373ffffffffffffffffffffffffffffffffffffffff1602179055506001600660146101000a81548160ff02191690831515021790555050565b600030905090565b600660009054906101000a900473ffffffffffffffffffffffffffffffffffffffff1681565b600160009054906101000a900473ffffffffffffffffffffffffffffffffffffffff1681565b600260009054906101000a900473ffffffffffffffffffffffffffffffffffffffff1673ffffffffffffffffffffffffffffffffffffffff163373ffffffffffffffffffffffffffffffffffffffff161480610781575060008054906101000a900473ffffffffffffffffffffffffffffffffffffffff1673ffffffffffffffffffffffffffffffffffffffff163373ffffffffffffffffffffffffffffffffffffffff16145b61078a57600080fd5b6001600660146101000a81548160ff021916908315150217905550565b600660159054906101000a900460ff1681565b600760009054906101000a900473ffffffffffffffffffffffffffffffffffffffff1681565b600860009054906101000a900473ffffffffffffffffffffffffffffffffffffffff1681565b600080600080600354600454600560009054906101000a900473ffffffffffffffffffffffffffffffffffffffff16600660009054906101000a900473ffffffffffffffffffffffffffffffffffffffff16935093509350935090919293565b60008060009054906101000a900473ffffffffffffffffffffffffffffffffffffffff16905090565b60035481565b6000600454905090565b600073ffffffffffffffffffffffffffffffffffffffff82169050919050565b60006108ca8261089f565b9050919050565b6108da816108bf565b82525050565b60006020820190506108f560008301846108d1565b92915050565b60008115159050919050565b610910816108fb565b82525050565b600060208201905061092b6000830184610907565b92915050565b6000819050919050565b61094481610931565b82525050565b600060208201905061095f600083018461093b565b92915050565b600080fd5b610973816108bf565b811461097e57600080fd5b50565b6000813590506109908161096a565b92915050565b6000602082840312156109ac576109ab610965565b5b60006109ba84828501610981565b91505092915050565b6000819050919050565b60006109e86109e36109de8461089f565b6109c3565b61089f565b9050919050565b60006109fa826109cd565b9050919050565b6000610a0c826109ef565b9050919050565b610a1c81610a01565b82525050565b6000602082019050610a376000830184610a13565b92915050565b6000610a48826109ef565b9050919050565b610a5881610a3d565b82525050565b6000602082019050610a736000830184610a4f565b92915050565b6000608082019050610a8e600083018761093b565b610a9b602083018661093b565b610aa860408301856108d1565b610ab560608301846108d1565b95945050505050565b6000606082019050610ad360008301866108d1565b610ae060208301856108d1565b610aed604083018461093b565b949350505050565b610afe816108fb565b8114610b0957600080fd5b50565b600081519050610b1b81610af5565b92915050565b600060208284031215610b3757610b36610965565b5b6000610b4584828501610b0c565b9150509291505056fea2646970667358221220e9be197c19e554f440ef8709828701dab06bc28c27ff2ee89764ce1bb48dc6fe64736f6c634300080a0033",
  "immutableReferences": {},
  "source": "// SPDX-License-Identifier: MIT\r\npragma solidity ^0.8.4;\r\n\r\nimport \"./access/Ownable.sol\";\r\nimport \"./token/ERC20/ERC20.sol\";\r\nimport \"./token/ERC721/ERC721.sol\";\r\nimport \"./SsafyNFT.sol\";\r\n\r\n/**\r\n * PJT  - Req.1-SC1 SaleFactory \r\n *    ,      .\r\n */\r\ncontract SaleFactory is Ownable {\r\n    address public admin;\r\n    address[] public sales;\r\n\r\n    event NewSale(\r\n        address indexed _saleContract,\r\n        address indexed _owner,\r\n        uint256 _workId\r\n    );\r\n\r\n    constructor() {\r\n        admin = msg.sender;\r\n    }\r\n\r\n    /**\r\n     * @dev   . \r\n     */\r\n    function createSale(\r\n        address seller,\r\n        uint256 itemId,\r\n        uint256 purchasePrice,\r\n        address currencyAddress,\r\n        address nftAddress\r\n    ) public returns (address) {\r\n        // TODO\r\n        Sale newContract = new Sale(admin, seller, itemId, purchasePrice, currencyAddress, nftAddress);\r\n        emit NewSale(newContract.getAddress(), newContract.getSeller(), newContract.gettokenId());\r\n        sales.push(newContract.getAddress());\r\n        return newContract.getAddress();\r\n    }\r\n\r\n    function allSales() public view returns (address[] memory) {\r\n        return sales;\r\n    }\r\n}\r\n\r\n/**\r\n *  PJT  - Req.1-SC2) Sale \r\n */\r\ncontract Sale {\r\n    //    \r\n    address public seller;\r\n    address public buyer;\r\n    address admin;\r\n    uint256 public purchasePrice;\r\n    uint256 public tokenId;\r\n    address public currencyAddress;\r\n    address public nftAddress;\r\n    bool public ended;\r\n    bool public check;\r\n\r\n    IERC20 public erc20Contract;\r\n    IERC721 public erc721Contract;\r\n\r\n    event SaleEnded(address winner, uint256 amount);\r\n\r\n    constructor(\r\n        address _admin,\r\n        address _seller,\r\n        uint256 _tokenId,\r\n        uint256 _purchasePrice,\r\n        address _currencyAddress,\r\n        address _nftAddress\r\n    ) {\r\n        require(_purchasePrice > 0);\r\n        tokenId = _tokenId;\r\n        purchasePrice = _purchasePrice;\r\n        seller = _seller;\r\n        admin = _admin;\r\n        currencyAddress = _currencyAddress;\r\n        nftAddress = _nftAddress;\r\n        ended = false;\r\n        erc20Contract = IERC20(_currencyAddress);\r\n        erc721Contract = IERC721(_nftAddress);\r\n    }\r\n\r\n    function purchase(address _buyer) public { \r\n        // TODO\r\n        buyer = _buyer;\r\n        require(buyer != seller);\r\n        //erc20Contract.approve(buyer, purchasePrice);\r\n        erc20Contract.transferFrom(buyer, seller, purchasePrice); //      \r\n\r\n        //erc721Contract.setApprovalForAll(seller, true);\r\n        //erc721Contract.approve(buyer, tokenId);\r\n        erc721Contract.transferFrom(seller, buyer, tokenId); //erc721Contract // NFT  \r\n        seller = buyer;\r\n        buyer = address(0);\r\n        ended = true;//      \r\n    }\r\n\r\n    function confirmItem() public {\r\n        // TODO \r\n    }\r\n\r\n    function cancelSales() public{\r\n        // TODO\r\n        require(msg.sender == admin || msg.sender == seller);\r\n        ended = true;\r\n    }\r\n\r\n    function getAddress() public view returns (address){\r\n        return address(this);\r\n    }\r\n\r\n    function getSeller() public view returns (address){\r\n        return seller;\r\n    }\r\n\r\n    function gettokenId() public view returns (uint256){\r\n        return tokenId;\r\n    }\r\n\r\n    function getSaleInfo()\r\n        public\r\n        view\r\n        returns (\r\n            uint256,\r\n            uint256,\r\n            address,\r\n            address\r\n        )\r\n    {\r\n        return (\r\n            purchasePrice,\r\n            tokenId,\r\n            currencyAddress,\r\n            nftAddress\r\n        );\r\n    }\r\n\r\n\r\n    // internal  private     _  .\r\n    function _end() internal {\r\n        ended = true;\r\n    }\r\n\r\n    function _getCurrencyAmount() private view returns (uint256) { \r\n        return erc20Contract.balanceOf(msg.sender); //     \r\n    }\r\n\r\n    // modifier       . \r\n    modifier onlySeller() {\r\n        require(msg.sender == seller, \"Sale: You are not seller.\"); \r\n        _;\r\n    }\r\n}\r\n",
  "sourcePath": "C:\\Users\\ssafy\\nft-master2\\S06P22A107\\smart-contracts\\contracts\\SaleFactory.sol",
  "compiler": {
    "name": "solc",
    "version": "0.8.10+commit.fc410830.Emscripten.clang"
  },
  "schemaVersion": "3.4.5",
  "updatedAt": "2022-04-06T06:55:24.535Z",
  "devdoc": {
    "kind": "dev",
    "methods": {},
    "version": 1
  },
  "userdoc": {
    "kind": "user",
    "methods": {},
    "notice": "PJT  - Req.1-SC2) Sale ",
    "version": 1
  }
}