{
  "contractName": "SaleFactory",
  "abi": [
    {
      "inputs": [],
      "stateMutability": "nonpayable",
      "type": "constructor"
    },
    {
      "anonymous": false,
      "inputs": [
        {
          "indexed": true,
          "internalType": "address",
          "name": "_saleContract",
          "type": "address"
        },
        {
          "indexed": true,
          "internalType": "address",
          "name": "_owner",
          "type": "address"
        },
        {
          "indexed": false,
          "internalType": "uint256",
          "name": "_workId",
          "type": "uint256"
        }
      ],
      "name": "NewSale",
      "type": "event"
    },
    {
      "anonymous": false,
      "inputs": [
        {
          "indexed": true,
          "internalType": "address",
          "name": "previousOwner",
          "type": "address"
        },
        {
          "indexed": true,
          "internalType": "address",
          "name": "newOwner",
          "type": "address"
        }
      ],
      "name": "OwnershipTransferred",
      "type": "event"
    },
    {
      "inputs": [],
      "name": "admin",
      "outputs": [
        {
          "internalType": "address",
          "name": "",
          "type": "address"
        }
      ],
      "stateMutability": "view",
      "type": "function",
      "constant": true
    },
    {
      "inputs": [],
      "name": "owner",
      "outputs": [
        {
          "internalType": "address",
          "name": "",
          "type": "address"
        }
      ],
      "stateMutability": "view",
      "type": "function",
      "constant": true
    },
    {
      "inputs": [],
      "name": "renounceOwnership",
      "outputs": [],
      "stateMutability": "nonpayable",
      "type": "function"
    },
    {
      "inputs": [
        {
          "internalType": "uint256",
          "name": "",
          "type": "uint256"
        }
      ],
      "name": "sales",
      "outputs": [
        {
          "internalType": "address",
          "name": "",
          "type": "address"
        }
      ],
      "stateMutability": "view",
      "type": "function",
      "constant": true
    },
    {
      "inputs": [
        {
          "internalType": "address",
          "name": "newOwner",
          "type": "address"
        }
      ],
      "name": "transferOwnership",
      "outputs": [],
      "stateMutability": "nonpayable",
      "type": "function"
    },
    {
      "inputs": [
        {
          "internalType": "address",
          "name": "seller",
          "type": "address"
        },
        {
          "internalType": "address",
          "name": "buyer",
          "type": "address"
        },
        {
          "internalType": "uint256",
          "name": "itemId",
          "type": "uint256"
        },
        {
          "internalType": "uint256",
          "name": "purchasePrice",
          "type": "uint256"
        },
        {
          "internalType": "address",
          "name": "currencyAddress",
          "type": "address"
        },
        {
          "internalType": "address",
          "name": "nftAddress",
          "type": "address"
        }
      ],
      "name": "createSale",
      "outputs": [
        {
          "internalType": "address",
          "name": "",
          "type": "address"
        }
      ],
      "stateMutability": "nonpayable",
      "type": "function"
    },
    {
      "inputs": [],
      "name": "allSales",
      "outputs": [
        {
          "internalType": "address[]",
          "name": "",
          "type": "address[]"
        }
      ],
      "stateMutability": "view",
      "type": "function",
      "constant": true
    }
  ],
  "bytecode": "0x608060405234801561001057600080fd5b5061002d61002261007360201b60201c565b61007b60201b60201c565b33600160006101000a81548173ffffffffffffffffffffffffffffffffffffffff021916908373ffffffffffffffffffffffffffffffffffffffff16021790555061013f565b600033905090565b60008060009054906101000a900473ffffffffffffffffffffffffffffffffffffffff169050816000806101000a81548173ffffffffffffffffffffffffffffffffffffffff021916908373ffffffffffffffffffffffffffffffffffffffff1602179055508173ffffffffffffffffffffffffffffffffffffffff168173ffffffffffffffffffffffffffffffffffffffff167f8be0079c531659141344cd1fd0a4f28419497f9722a3daafe3b4186f6b6457e060405160405180910390a35050565b61221d8061014e6000396000f3fe60806040523480156200001157600080fd5b5060043610620000885760003560e01c80638da5cb5b11620000635780638da5cb5b14620000f1578063b5f522f71462000113578063f2fde38b1462000149578063f851a44014620001695762000088565b80636c4d3d2b146200008d5780636eafecba14620000c3578063715018a614620000e5575b600080fd5b620000ab6004803603810190620000a5919062000937565b6200018b565b604051620000ba9190620009e4565b60405180910390f35b620000cd62000504565b604051620000dc919062000acf565b60405180910390f35b620000ef62000594565b005b620000fb62000625565b6040516200010a9190620009e4565b60405180910390f35b6200013160048036038101906200012b919062000af3565b6200064e565b604051620001409190620009e4565b60405180910390f35b62000167600480360381019062000161919062000b25565b6200068e565b005b6200017362000792565b604051620001829190620009e4565b60405180910390f35b600080600160009054906101000a900473ffffffffffffffffffffffffffffffffffffffff16888888888888604051620001c59062000884565b620001d7979695949392919062000b68565b604051809103906000f080158015620001f4573d6000803e3d6000fd5b5090508073ffffffffffffffffffffffffffffffffffffffff1663dbd0e1b66040518163ffffffff1660e01b8152600401602060405180830381865afa15801562000243573d6000803e3d6000fd5b505050506040513d601f19601f8201168201806040525081019062000269919062000bfc565b73ffffffffffffffffffffffffffffffffffffffff168173ffffffffffffffffffffffffffffffffffffffff166338cc48316040518163ffffffff1660e01b8152600401602060405180830381865afa158015620002cb573d6000803e3d6000fd5b505050506040513d601f19601f82011682018060405250810190620002f1919062000bfc565b73ffffffffffffffffffffffffffffffffffffffff167f874bdb649427dfeceaa7f10beee59a823d3e45a6814f50bc18ba2adefd058e488373ffffffffffffffffffffffffffffffffffffffff1663e50590ae6040518163ffffffff1660e01b8152600401602060405180830381865afa15801562000374573d6000803e3d6000fd5b505050506040513d601f19601f820116820180604052508101906200039a919062000c45565b604051620003a9919062000c77565b60405180910390a360028173ffffffffffffffffffffffffffffffffffffffff166338cc48316040518163ffffffff1660e01b8152600401602060405180830381865afa158015620003ff573d6000803e3d6000fd5b505050506040513d601f19601f8201168201806040525081019062000425919062000bfc565b9080600181540180825580915050600190039060005260206000200160009091909190916101000a81548173ffffffffffffffffffffffffffffffffffffffff021916908373ffffffffffffffffffffffffffffffffffffffff1602179055508073ffffffffffffffffffffffffffffffffffffffff166338cc48316040518163ffffffff1660e01b8152600401602060405180830381865afa158015620004d1573d6000803e3d6000fd5b505050506040513d601f19601f82011682018060405250810190620004f7919062000bfc565b9150509695505050505050565b606060028054806020026020016040519081016040528092919081815260200182805480156200058a57602002820191906000526020600020905b8160009054906101000a900473ffffffffffffffffffffffffffffffffffffffff1673ffffffffffffffffffffffffffffffffffffffff16815260200190600101908083116200053f575b5050505050905090565b6200059e620007b8565b73ffffffffffffffffffffffffffffffffffffffff16620005be62000625565b73ffffffffffffffffffffffffffffffffffffffff161462000617576040517f08c379a00000000000000000000000000000000000000000000000000000000081526004016200060e9062000cf5565b60405180910390fd5b620006236000620007c0565b565b60008060009054906101000a900473ffffffffffffffffffffffffffffffffffffffff16905090565b600281815481106200065f57600080fd5b906000526020600020016000915054906101000a900473ffffffffffffffffffffffffffffffffffffffff1681565b62000698620007b8565b73ffffffffffffffffffffffffffffffffffffffff16620006b862000625565b73ffffffffffffffffffffffffffffffffffffffff161462000711576040517f08c379a0000000000000000000000000000000000000000000000000000000008152600401620007089062000cf5565b60405180910390fd5b600073ffffffffffffffffffffffffffffffffffffffff168173ffffffffffffffffffffffffffffffffffffffff16141562000784576040517f08c379a00000000000000000000000000000000000000000000000000000000081526004016200077b9062000d8d565b60405180910390fd5b6200078f81620007c0565b50565b600160009054906101000a900473ffffffffffffffffffffffffffffffffffffffff1681565b600033905090565b60008060009054906101000a900473ffffffffffffffffffffffffffffffffffffffff169050816000806101000a81548173ffffffffffffffffffffffffffffffffffffffff021916908373ffffffffffffffffffffffffffffffffffffffff1602179055508173ffffffffffffffffffffffffffffffffffffffff168173ffffffffffffffffffffffffffffffffffffffff167f8be0079c531659141344cd1fd0a4f28419497f9722a3daafe3b4186f6b6457e060405160405180910390a35050565b6114388062000db083390190565b600080fd5b600073ffffffffffffffffffffffffffffffffffffffff82169050919050565b6000620008c48262000897565b9050919050565b620008d681620008b7565b8114620008e257600080fd5b50565b600081359050620008f681620008cb565b92915050565b6000819050919050565b6200091181620008fc565b81146200091d57600080fd5b50565b600081359050620009318162000906565b92915050565b60008060008060008060c0878903121562000957576200095662000892565b5b60006200096789828a01620008e5565b96505060206200097a89828a01620008e5565b95505060406200098d89828a0162000920565b9450506060620009a089828a0162000920565b9350506080620009b389828a01620008e5565b92505060a0620009c689828a01620008e5565b9150509295509295509295565b620009de81620008b7565b82525050565b6000602082019050620009fb6000830184620009d3565b92915050565b600081519050919050565b600082825260208201905092915050565b6000819050602082019050919050565b62000a3881620008b7565b82525050565b600062000a4c838362000a2d565b60208301905092915050565b6000602082019050919050565b600062000a728262000a01565b62000a7e818562000a0c565b935062000a8b8362000a1d565b8060005b8381101562000ac257815162000aa6888262000a3e565b975062000ab38362000a58565b92505060018101905062000a8f565b5085935050505092915050565b6000602082019050818103600083015262000aeb818462000a65565b905092915050565b60006020828403121562000b0c5762000b0b62000892565b5b600062000b1c8482850162000920565b91505092915050565b60006020828403121562000b3e5762000b3d62000892565b5b600062000b4e84828501620008e5565b91505092915050565b62000b6281620008fc565b82525050565b600060e08201905062000b7f600083018a620009d3565b62000b8e6020830189620009d3565b62000b9d6040830188620009d3565b62000bac606083018762000b57565b62000bbb608083018662000b57565b62000bca60a0830185620009d3565b62000bd960c0830184620009d3565b98975050505050505050565b60008151905062000bf681620008cb565b92915050565b60006020828403121562000c155762000c1462000892565b5b600062000c258482850162000be5565b91505092915050565b60008151905062000c3f8162000906565b92915050565b60006020828403121562000c5e5762000c5d62000892565b5b600062000c6e8482850162000c2e565b91505092915050565b600060208201905062000c8e600083018462000b57565b92915050565b600082825260208201905092915050565b7f4f776e61626c653a2063616c6c6572206973206e6f7420746865206f776e6572600082015250565b600062000cdd60208362000c94565b915062000cea8262000ca5565b602082019050919050565b6000602082019050818103600083015262000d108162000cce565b9050919050565b7f4f776e61626c653a206e6577206f776e657220697320746865207a65726f206160008201527f6464726573730000000000000000000000000000000000000000000000000000602082015250565b600062000d7560268362000c94565b915062000d828262000d17565b604082019050919050565b6000602082019050818103600083015262000da88162000d66565b905091905056fe60806040523480156200001157600080fd5b5060405162001438380380620014388339818101604052810190620000379190620002e6565b600083116200004557600080fd5b8360048190555082600381905550856000806101000a81548173ffffffffffffffffffffffffffffffffffffffff021916908373ffffffffffffffffffffffffffffffffffffffff16021790555084600160006101000a81548173ffffffffffffffffffffffffffffffffffffffff021916908373ffffffffffffffffffffffffffffffffffffffff16021790555086600260006101000a81548173ffffffffffffffffffffffffffffffffffffffff021916908373ffffffffffffffffffffffffffffffffffffffff16021790555081600560006101000a81548173ffffffffffffffffffffffffffffffffffffffff021916908373ffffffffffffffffffffffffffffffffffffffff16021790555080600660006101000a81548173ffffffffffffffffffffffffffffffffffffffff021916908373ffffffffffffffffffffffffffffffffffffffff1602179055506000600660146101000a81548160ff02191690831515021790555081600960006101000a81548173ffffffffffffffffffffffffffffffffffffffff021916908373ffffffffffffffffffffffffffffffffffffffff16021790555080600a60006101000a81548173ffffffffffffffffffffffffffffffffffffffff021916908373ffffffffffffffffffffffffffffffffffffffff1602179055505050505050505062000399565b600080fd5b600073ffffffffffffffffffffffffffffffffffffffff82169050919050565b6000620002738262000246565b9050919050565b620002858162000266565b81146200029157600080fd5b50565b600081519050620002a5816200027a565b92915050565b6000819050919050565b620002c081620002ab565b8114620002cc57600080fd5b50565b600081519050620002e081620002b5565b92915050565b600080600080600080600060e0888a03121562000308576200030762000241565b5b6000620003188a828b0162000294565b97505060206200032b8a828b0162000294565b96505060406200033e8a828b0162000294565b9550506060620003518a828b01620002cf565b9450506080620003648a828b01620002cf565b93505060a0620003778a828b0162000294565b92505060c06200038a8a828b0162000294565b91505092959891949750929550565b61108f80620003a96000396000f3fe608060405234801561001057600080fd5b50600436106101215760003560e01c80637150d8ae116100ad578063db83694c11610071578063db83694c1461028c578063dbd0e1b6146102ad578063defd6c5f146102cb578063e50590ae146102e9578063ef0a230e1461030757610121565b80637150d8ae1461020a578063903e329c1461022857806391f9015714610232578063a8f6c91314610250578063d57bde791461026e57610121565b80631c1cb323116100f45780631c1cb3231461018a57806338cc4831146101a8578063454a2ab3146101c65780635bf8633a146101e257806364edfbf01461020057610121565b806308551a53146101265780630a7f463f1461014457806312fa6feb1461014e57806317d70f7c1461016c575b600080fd5b61012e610325565b60405161013b9190610d45565b60405180910390f35b61014c610349565b005b61015661034b565b6040516101639190610d7b565b60405180910390f35b61017461035e565b6040516101819190610daf565b60405180910390f35b610192610364565b60405161019f9190610d45565b60405180910390f35b6101b061038a565b6040516101bd9190610d45565b60405180910390f35b6101e060048036038101906101db9190610dfb565b610392565b005b6101ea6104ee565b6040516101f79190610d45565b60405180910390f35b610208610514565b005b610212610944565b60405161021f9190610d45565b60405180910390f35b61023061096a565b005b61023a610bf3565b6040516102479190610d45565b60405180910390f35b610258610c19565b6040516102659190610e87565b60405180910390f35b610276610c3f565b6040516102839190610daf565b60405180910390f35b610294610c45565b6040516102a49493929190610ea2565b60405180910390f35b6102b5610ca5565b6040516102c29190610d45565b60405180910390f35b6102d3610cce565b6040516102e09190610daf565b60405180910390f35b6102f1610cd4565b6040516102fe9190610daf565b60405180910390f35b61030f610cde565b60405161031c9190610f08565b60405180910390f35b60008054906101000a900473ffffffffffffffffffffffffffffffffffffffff1681565b565b600660149054906101000a900460ff1681565b60045481565b600560009054906101000a900473ffffffffffffffffffffffffffffffffffffffff1681565b600030905090565b60008054906101000a900473ffffffffffffffffffffffffffffffffffffffff1673ffffffffffffffffffffffffffffffffffffffff163373ffffffffffffffffffffffffffffffffffffffff1614610420576040517f08c379a000000000000000000000000000000000000000000000000000000000815260040161041790610f80565b60405180910390fd5b600960009054906101000a900473ffffffffffffffffffffffffffffffffffffffff1673ffffffffffffffffffffffffffffffffffffffff1663095ea7b3600160009054906101000a900473ffffffffffffffffffffffffffffffffffffffff16836040518363ffffffff1660e01b815260040161049f929190610fa0565b6020604051808303816000875af11580156104be573d6000803e3d6000fd5b505050506040513d601f19601f820116820180604052508101906104e29190610ff5565b6104eb57600080fd5b50565b600660009054906101000a900473ffffffffffffffffffffffffffffffffffffffff1681565b60008054906101000a900473ffffffffffffffffffffffffffffffffffffffff1673ffffffffffffffffffffffffffffffffffffffff163373ffffffffffffffffffffffffffffffffffffffff16146105a2576040517f08c379a000000000000000000000000000000000000000000000000000000000815260040161059990610f80565b60405180910390fd5b3373ffffffffffffffffffffffffffffffffffffffff1660008054906101000a900473ffffffffffffffffffffffffffffffffffffffff1673ffffffffffffffffffffffffffffffffffffffff1614156105fb57600080fd5b600960009054906101000a900473ffffffffffffffffffffffffffffffffffffffff1673ffffffffffffffffffffffffffffffffffffffff1663095ea7b3600160009054906101000a900473ffffffffffffffffffffffffffffffffffffffff166003546040518363ffffffff1660e01b815260040161067c929190610fa0565b6020604051808303816000875af115801561069b573d6000803e3d6000fd5b505050506040513d601f19601f820116820180604052508101906106bf9190610ff5565b6106c857600080fd5b600960009054906101000a900473ffffffffffffffffffffffffffffffffffffffff1673ffffffffffffffffffffffffffffffffffffffff1663a9059cbb600160009054906101000a900473ffffffffffffffffffffffffffffffffffffffff166003546040518363ffffffff1660e01b8152600401610749929190610fa0565b6020604051808303816000875af1158015610768573d6000803e3d6000fd5b505050506040513d601f19601f8201168201806040525081019061078c9190610ff5565b50600960009054906101000a900473ffffffffffffffffffffffffffffffffffffffff1673ffffffffffffffffffffffffffffffffffffffff1663095ea7b3600160009054906101000a900473ffffffffffffffffffffffffffffffffffffffff166003546040518363ffffffff1660e01b815260040161080e929190610fa0565b6020604051808303816000875af115801561082d573d6000803e3d6000fd5b505050506040513d601f19601f820116820180604052508101906108519190610ff5565b50600a60009054906101000a900473ffffffffffffffffffffffffffffffffffffffff1673ffffffffffffffffffffffffffffffffffffffff166323b872dd60008054906101000a900473ffffffffffffffffffffffffffffffffffffffff16600160009054906101000a900473ffffffffffffffffffffffffffffffffffffffff166004546040518463ffffffff1660e01b81526004016108f593929190611022565b600060405180830381600087803b15801561090f57600080fd5b505af1158015610923573d6000803e3d6000fd5b505050506001600660146101000a81548160ff021916908315150217905550565b600160009054906101000a900473ffffffffffffffffffffffffffffffffffffffff1681565b600260009054906101000a900473ffffffffffffffffffffffffffffffffffffffff1673ffffffffffffffffffffffffffffffffffffffff163373ffffffffffffffffffffffffffffffffffffffff161480610a11575060008054906101000a900473ffffffffffffffffffffffffffffffffffffffff1673ffffffffffffffffffffffffffffffffffffffff163373ffffffffffffffffffffffffffffffffffffffff16145b610a1a57600080fd5b600960009054906101000a900473ffffffffffffffffffffffffffffffffffffffff1673ffffffffffffffffffffffffffffffffffffffff166323b872dd600160009054906101000a900473ffffffffffffffffffffffffffffffffffffffff1660008054906101000a900473ffffffffffffffffffffffffffffffffffffffff166003546040518463ffffffff1660e01b8152600401610abd93929190611022565b6020604051808303816000875af1158015610adc573d6000803e3d6000fd5b505050506040513d601f19601f82011682018060405250810190610b009190610ff5565b50600a60009054906101000a900473ffffffffffffffffffffffffffffffffffffffff1673ffffffffffffffffffffffffffffffffffffffff166323b872dd600160009054906101000a900473ffffffffffffffffffffffffffffffffffffffff1660008054906101000a900473ffffffffffffffffffffffffffffffffffffffff166004546040518463ffffffff1660e01b8152600401610ba493929190611022565b600060405180830381600087803b158015610bbe57600080fd5b505af1158015610bd2573d6000803e3d6000fd5b505050506001600660146101000a81548160ff021916908315150217905550565b600760009054906101000a900473ffffffffffffffffffffffffffffffffffffffff1681565b600960009054906101000a900473ffffffffffffffffffffffffffffffffffffffff1681565b60085481565b600080600080600354600454600560009054906101000a900473ffffffffffffffffffffffffffffffffffffffff16600660009054906101000a900473ffffffffffffffffffffffffffffffffffffffff16935093509350935090919293565b60008060009054906101000a900473ffffffffffffffffffffffffffffffffffffffff16905090565b60035481565b6000600454905090565b600a60009054906101000a900473ffffffffffffffffffffffffffffffffffffffff1681565b600073ffffffffffffffffffffffffffffffffffffffff82169050919050565b6000610d2f82610d04565b9050919050565b610d3f81610d24565b82525050565b6000602082019050610d5a6000830184610d36565b92915050565b60008115159050919050565b610d7581610d60565b82525050565b6000602082019050610d906000830184610d6c565b92915050565b6000819050919050565b610da981610d96565b82525050565b6000602082019050610dc46000830184610da0565b92915050565b600080fd5b610dd881610d96565b8114610de357600080fd5b50565b600081359050610df581610dcf565b92915050565b600060208284031215610e1157610e10610dca565b5b6000610e1f84828501610de6565b91505092915050565b6000819050919050565b6000610e4d610e48610e4384610d04565b610e28565b610d04565b9050919050565b6000610e5f82610e32565b9050919050565b6000610e7182610e54565b9050919050565b610e8181610e66565b82525050565b6000602082019050610e9c6000830184610e78565b92915050565b6000608082019050610eb76000830187610da0565b610ec46020830186610da0565b610ed16040830185610d36565b610ede6060830184610d36565b95945050505050565b6000610ef282610e54565b9050919050565b610f0281610ee7565b82525050565b6000602082019050610f1d6000830184610ef9565b92915050565b600082825260208201905092915050565b7f53616c653a20596f7520617265206e6f742073656c6c65722e00000000000000600082015250565b6000610f6a601983610f23565b9150610f7582610f34565b602082019050919050565b60006020820190508181036000830152610f9981610f5d565b9050919050565b6000604082019050610fb56000830185610d36565b610fc26020830184610da0565b9392505050565b610fd281610d60565b8114610fdd57600080fd5b50565b600081519050610fef81610fc9565b92915050565b60006020828403121561100b5761100a610dca565b5b600061101984828501610fe0565b91505092915050565b60006060820190506110376000830186610d36565b6110446020830185610d36565b6110516040830184610da0565b94935050505056fea2646970667358221220ba7e7daa50bcdb9c508cd64cac6da52e8de15f79968958a2cf5247824610328a64736f6c634300080a0033a2646970667358221220e3bb99a8c755e68850266f6a3bde17f55ba6c4d75c94bf8c7965bed285b4ee8c64736f6c634300080a0033",
  "immutableReferences": {},
  "source": "// SPDX-License-Identifier: MIT\r\npragma solidity ^0.8.4;\r\n\r\nimport \"./access/Ownable.sol\";\r\nimport \"./token/ERC20/ERC20.sol\";\r\nimport \"./token/ERC721/ERC721.sol\";\r\nimport \"./SsafyNFT.sol\";\r\n\r\n/**\r\n * PJT  - Req.1-SC1 SaleFactory \r\n *    ,      .\r\n */\r\ncontract SaleFactory is Ownable {\r\n    address public admin;\r\n    address[] public sales;\r\n\r\n    event NewSale(\r\n        address indexed _saleContract,\r\n        address indexed _owner,\r\n        uint256 _workId\r\n    );\r\n\r\n    constructor() {\r\n        admin = msg.sender;\r\n    }\r\n\r\n    /**\r\n     * @dev   . \r\n     */\r\n    function createSale(\r\n        address seller,\r\n        address buyer,\r\n        uint256 itemId,\r\n        uint256 purchasePrice,\r\n        // uint256 minPrice,\r\n        // uint256 startTime,\r\n        // uint256 endTime,\r\n        address currencyAddress,\r\n        address nftAddress\r\n    ) public returns (address) {\r\n        // TODO\r\n        Sale newContract = new Sale(admin, seller, buyer, itemId, purchasePrice, currencyAddress, nftAddress);\r\n        emit NewSale(newContract.getAddress(), newContract.getSeller(), newContract.gettokenId());\r\n        sales.push(newContract.getAddress());\r\n        return newContract.getAddress();\r\n    }\r\n\r\n    function allSales() public view returns (address[] memory) {\r\n        return sales;\r\n    }\r\n}\r\n\r\n/**\r\n *  PJT  - Req.1-SC2) Sale \r\n */\r\ncontract Sale {\r\n    //    \r\n    address public seller;\r\n    address public buyer;\r\n    address admin;\r\n    // uint256 public saleStartTime;\r\n    // uint256 public saleEndTime;\r\n    // uint256 public minPrice;\r\n    uint256 public purchasePrice;\r\n    uint256 public tokenId;\r\n    address public currencyAddress;\r\n    address public nftAddress;\r\n    bool public ended;\r\n\r\n    //    \r\n    address public highestBidder;\r\n    uint256 public highestBid;\r\n\r\n    IERC20 public erc20Contract;\r\n    IERC721 public erc721Constract;\r\n\r\n    event HighestBidIncereased(address bidder, uint256 amount);\r\n    event SaleEnded(address winner, uint256 amount);\r\n\r\n    constructor(\r\n        address _admin,\r\n        address _seller,\r\n        address _buyer,\r\n        uint256 _tokenId,\r\n        //uint256 _minPrice,\r\n        uint256 _purchasePrice,\r\n        // uint256 startTime,\r\n        // uint256 endTime,\r\n        address _currencyAddress,\r\n        address _nftAddress\r\n    ) {\r\n        require(_purchasePrice > 0); // _minPrice > 0\r\n        tokenId = _tokenId;\r\n        //minPrice = _minPrice;\r\n        purchasePrice = _purchasePrice;\r\n        seller = _seller;\r\n        buyer = _buyer;\r\n        admin = _admin;\r\n        // saleStartTime = startTime;\r\n        // saleEndTime = endTime;\r\n        currencyAddress = _currencyAddress;\r\n        nftAddress = _nftAddress;\r\n        ended = false;\r\n        erc20Contract = ERC20(_currencyAddress);\r\n        erc721Constract = IERC721(_nftAddress);\r\n    }\r\n\r\n    function bid(uint256 bid_amount) public onlySeller { //onlyAfterStart\r\n        // TODO\r\n        // int256 success = getTimeLeft();\r\n        // require(success > 0);\r\n        require(erc20Contract.approve(buyer, bid_amount));\r\n    }\r\n\r\n    function purchase() public onlySeller{ // onlyAfterStart\r\n        // TODO\r\n        require(seller != msg.sender);\r\n        require(erc20Contract.approve(buyer, purchasePrice));\r\n\r\n        erc20Contract.transfer(buyer, purchasePrice); //      \r\n        erc20Contract.approve(buyer, purchasePrice);\r\n        \r\n        erc721Constract.transferFrom(seller, buyer, tokenId); //erc721Constract // NFT  \r\n        ended = true;//         ??\r\n    }\r\n\r\n    function confirmItem() public {\r\n        // TODO \r\n    }\r\n    \r\n    function cancelSales() public{\r\n        // TODO\r\n        // int256 success = getTimeLeft();\r\n        // require(success > 0);\r\n        require(msg.sender == admin || msg.sender == seller);\r\n\r\n        erc20Contract.transferFrom(buyer, seller, purchasePrice); // \r\n        erc721Constract.transferFrom(buyer, seller, tokenId);// NFT \r\n        ended = true;//    \r\n    }\r\n\r\n    function getAddress() public view returns (address){\r\n        return address(this);\r\n    }\r\n\r\n    function getSeller() public view returns (address){\r\n        return seller;\r\n    }\r\n\r\n    function gettokenId() public view returns (uint256){\r\n        return tokenId;\r\n    }\r\n\r\n    // function getTimeLeft() public view returns (int256) {\r\n    //     return (int256)(saleEndTime - block.timestamp);\r\n    // }\r\n\r\n    function getSaleInfo()\r\n        public\r\n        view\r\n        returns (\r\n            // uint256,\r\n            // uint256,\r\n            // uint256,\r\n            uint256,\r\n            uint256,\r\n            //address,\r\n            //uint256,\r\n            address,\r\n            address\r\n        )\r\n    {\r\n        return (\r\n            // saleStartTime,\r\n            // saleEndTime,\r\n            // minPrice,\r\n            purchasePrice,\r\n            tokenId,\r\n            //highestBidder,\r\n            //highestBid,\r\n            currencyAddress,\r\n            nftAddress\r\n        );\r\n    }\r\n\r\n    // function getHighestBid() public view returns(uint256){\r\n    //     return highestBid;\r\n    // }\r\n\r\n    // internal  private     _  .\r\n    function _end() internal {\r\n        ended = true;\r\n    }\r\n\r\n    function _getCurrencyAmount() private view returns (uint256) { \r\n        return erc20Contract.balanceOf(msg.sender); //     \r\n    }\r\n\r\n    // modifier       . \r\n    modifier onlySeller() {\r\n        require(msg.sender == seller, \"Sale: You are not seller.\"); \r\n        _;\r\n    }\r\n\r\n    // modifier onlyAfterStart() {\r\n    //     require(\r\n    //         block.timestamp >= saleStartTime,\r\n    //         \"Sale: This sale is not started.\"\r\n    //     );\r\n    //     _;\r\n    // }\r\n}\r\n",
  "sourcePath": "C:\\SSAFY\\workspace\\vsc\\S06P22A107\\smart-contracts\\contracts\\SaleFactory.sol",
  "compiler": {
    "name": "solc",
    "version": "0.8.10+commit.fc410830.Emscripten.clang"
  },
  "schemaVersion": "3.4.3",
  "updatedAt": "2022-03-31T07:08:44.396Z",
  "networkType": "ethereum",
  "devdoc": {
    "kind": "dev",
    "methods": {
      "createSale(address,address,uint256,uint256,address,address)": {
        "details": "  . "
      },
      "owner()": {
        "details": "Returns the address of the current owner."
      },
      "renounceOwnership()": {
        "details": "Leaves the contract without owner. It will not be possible to call `onlyOwner` functions anymore. Can only be called by the current owner. NOTE: Renouncing ownership will leave the contract without an owner, thereby removing any functionality that is only available to the owner."
      },
      "transferOwnership(address)": {
        "details": "Transfers ownership of the contract to a new account (`newOwner`). Can only be called by the current owner."
      }
    },
    "version": 1
  },
  "userdoc": {
    "kind": "user",
    "methods": {},
    "notice": "PJT  - Req.1-SC1 SaleFactory     ,      .",
    "version": 1
  }
}