{
  "contractName": "SaleFactory",
  "abi": [
    {
      "inputs": [],
      "stateMutability": "nonpayable",
      "type": "constructor"
    },
    {
      "anonymous": false,
      "inputs": [
        {
          "indexed": true,
          "internalType": "address",
          "name": "_saleContract",
          "type": "address"
        },
        {
          "indexed": true,
          "internalType": "address",
          "name": "_owner",
          "type": "address"
        },
        {
          "indexed": false,
          "internalType": "uint256",
          "name": "_workId",
          "type": "uint256"
        }
      ],
      "name": "NewSale",
      "type": "event"
    },
    {
      "anonymous": false,
      "inputs": [
        {
          "indexed": true,
          "internalType": "address",
          "name": "previousOwner",
          "type": "address"
        },
        {
          "indexed": true,
          "internalType": "address",
          "name": "newOwner",
          "type": "address"
        }
      ],
      "name": "OwnershipTransferred",
      "type": "event"
    },
    {
      "inputs": [],
      "name": "admin",
      "outputs": [
        {
          "internalType": "address",
          "name": "",
          "type": "address"
        }
      ],
      "stateMutability": "view",
      "type": "function",
      "constant": true
    },
    {
      "inputs": [],
      "name": "owner",
      "outputs": [
        {
          "internalType": "address",
          "name": "",
          "type": "address"
        }
      ],
      "stateMutability": "view",
      "type": "function",
      "constant": true
    },
    {
      "inputs": [],
      "name": "renounceOwnership",
      "outputs": [],
      "stateMutability": "nonpayable",
      "type": "function"
    },
    {
      "inputs": [
        {
          "internalType": "uint256",
          "name": "",
          "type": "uint256"
        }
      ],
      "name": "sales",
      "outputs": [
        {
          "internalType": "address",
          "name": "",
          "type": "address"
        }
      ],
      "stateMutability": "view",
      "type": "function",
      "constant": true
    },
    {
      "inputs": [
        {
          "internalType": "address",
          "name": "newOwner",
          "type": "address"
        }
      ],
      "name": "transferOwnership",
      "outputs": [],
      "stateMutability": "nonpayable",
      "type": "function"
    },
    {
      "inputs": [
        {
          "internalType": "uint256",
          "name": "itemId",
          "type": "uint256"
        },
        {
          "internalType": "uint256",
          "name": "purchasePrice",
          "type": "uint256"
        },
        {
          "internalType": "address",
          "name": "currencyAddress",
          "type": "address"
        },
        {
          "internalType": "address",
          "name": "nftAddress",
          "type": "address"
        }
      ],
      "name": "createSale",
      "outputs": [
        {
          "internalType": "address",
          "name": "",
          "type": "address"
        }
      ],
      "stateMutability": "nonpayable",
      "type": "function"
    },
    {
      "inputs": [],
      "name": "allSales",
      "outputs": [
        {
          "internalType": "address[]",
          "name": "",
          "type": "address[]"
        }
      ],
      "stateMutability": "view",
      "type": "function",
      "constant": true
    }
  ],
  "bytecode": "0x608060405234801561001057600080fd5b5061002d61002261007360201b60201c565b61007b60201b60201c565b33600160006101000a81548173ffffffffffffffffffffffffffffffffffffffff021916908373ffffffffffffffffffffffffffffffffffffffff16021790555061013f565b600033905090565b60008060009054906101000a900473ffffffffffffffffffffffffffffffffffffffff169050816000806101000a81548173ffffffffffffffffffffffffffffffffffffffff021916908373ffffffffffffffffffffffffffffffffffffffff1602179055508173ffffffffffffffffffffffffffffffffffffffff168173ffffffffffffffffffffffffffffffffffffffff167f8be0079c531659141344cd1fd0a4f28419497f9722a3daafe3b4186f6b6457e060405160405180910390a35050565b61209e8061014e6000396000f3fe60806040523480156200001157600080fd5b5060043610620000885760003560e01c80638da5cb5b11620000635780638da5cb5b14620000f1578063b5f522f71462000113578063f2fde38b1462000149578063f851a44014620001695762000088565b80631df3574f146200008d5780636eafecba14620000c3578063715018a614620000e5575b600080fd5b620000ab6004803603810190620000a5919062000955565b6200018b565b604051620000ba9190620009d8565b60405180910390f35b620000cd62000522565b604051620000dc919062000ac3565b60405180910390f35b620000ef620005b2565b005b620000fb62000643565b6040516200010a9190620009d8565b60405180910390f35b6200013160048036038101906200012b919062000ae7565b6200066c565b604051620001409190620009d8565b60405180910390f35b62000167600480360381019062000161919062000b19565b620006ac565b005b62000173620007b0565b604051620001829190620009d8565b60405180910390f35b600080600160009054906101000a900473ffffffffffffffffffffffffffffffffffffffff16600160009054906101000a900473ffffffffffffffffffffffffffffffffffffffff1687878787604051620001e690620008a2565b620001f79695949392919062000b5c565b604051809103906000f08015801562000214573d6000803e3d6000fd5b5090508073ffffffffffffffffffffffffffffffffffffffff1663dbd0e1b66040518163ffffffff1660e01b8152600401602060405180830381865afa15801562000263573d6000803e3d6000fd5b505050506040513d601f19601f8201168201806040525081019062000289919062000be0565b73ffffffffffffffffffffffffffffffffffffffff168173ffffffffffffffffffffffffffffffffffffffff166338cc48316040518163ffffffff1660e01b8152600401602060405180830381865afa158015620002eb573d6000803e3d6000fd5b505050506040513d601f19601f8201168201806040525081019062000311919062000be0565b73ffffffffffffffffffffffffffffffffffffffff167f874bdb649427dfeceaa7f10beee59a823d3e45a6814f50bc18ba2adefd058e488373ffffffffffffffffffffffffffffffffffffffff1663e50590ae6040518163ffffffff1660e01b8152600401602060405180830381865afa15801562000394573d6000803e3d6000fd5b505050506040513d601f19601f82011682018060405250810190620003ba919062000c29565b604051620003c9919062000c5b565b60405180910390a360028173ffffffffffffffffffffffffffffffffffffffff166338cc48316040518163ffffffff1660e01b8152600401602060405180830381865afa1580156200041f573d6000803e3d6000fd5b505050506040513d601f19601f8201168201806040525081019062000445919062000be0565b9080600181540180825580915050600190039060005260206000200160009091909190916101000a81548173ffffffffffffffffffffffffffffffffffffffff021916908373ffffffffffffffffffffffffffffffffffffffff1602179055508073ffffffffffffffffffffffffffffffffffffffff166338cc48316040518163ffffffff1660e01b8152600401602060405180830381865afa158015620004f1573d6000803e3d6000fd5b505050506040513d601f19601f8201168201806040525081019062000517919062000be0565b915050949350505050565b60606002805480602002602001604051908101604052809291908181526020018280548015620005a857602002820191906000526020600020905b8160009054906101000a900473ffffffffffffffffffffffffffffffffffffffff1673ffffffffffffffffffffffffffffffffffffffff16815260200190600101908083116200055d575b5050505050905090565b620005bc620007d6565b73ffffffffffffffffffffffffffffffffffffffff16620005dc62000643565b73ffffffffffffffffffffffffffffffffffffffff161462000635576040517f08c379a00000000000000000000000000000000000000000000000000000000081526004016200062c9062000cd9565b60405180910390fd5b620006416000620007de565b565b60008060009054906101000a900473ffffffffffffffffffffffffffffffffffffffff16905090565b600281815481106200067d57600080fd5b906000526020600020016000915054906101000a900473ffffffffffffffffffffffffffffffffffffffff1681565b620006b6620007d6565b73ffffffffffffffffffffffffffffffffffffffff16620006d662000643565b73ffffffffffffffffffffffffffffffffffffffff16146200072f576040517f08c379a0000000000000000000000000000000000000000000000000000000008152600401620007269062000cd9565b60405180910390fd5b600073ffffffffffffffffffffffffffffffffffffffff168173ffffffffffffffffffffffffffffffffffffffff161415620007a2576040517f08c379a0000000000000000000000000000000000000000000000000000000008152600401620007999062000d71565b60405180910390fd5b620007ad81620007de565b50565b600160009054906101000a900473ffffffffffffffffffffffffffffffffffffffff1681565b600033905090565b60008060009054906101000a900473ffffffffffffffffffffffffffffffffffffffff169050816000806101000a81548173ffffffffffffffffffffffffffffffffffffffff021916908373ffffffffffffffffffffffffffffffffffffffff1602179055508173ffffffffffffffffffffffffffffffffffffffff168173ffffffffffffffffffffffffffffffffffffffff167f8be0079c531659141344cd1fd0a4f28419497f9722a3daafe3b4186f6b6457e060405160405180910390a35050565b6112d58062000d9483390190565b600080fd5b6000819050919050565b620008ca81620008b5565b8114620008d657600080fd5b50565b600081359050620008ea81620008bf565b92915050565b600073ffffffffffffffffffffffffffffffffffffffff82169050919050565b60006200091d82620008f0565b9050919050565b6200092f8162000910565b81146200093b57600080fd5b50565b6000813590506200094f8162000924565b92915050565b60008060008060808587031215620009725762000971620008b0565b5b60006200098287828801620008d9565b94505060206200099587828801620008d9565b9350506040620009a8878288016200093e565b9250506060620009bb878288016200093e565b91505092959194509250565b620009d28162000910565b82525050565b6000602082019050620009ef6000830184620009c7565b92915050565b600081519050919050565b600082825260208201905092915050565b6000819050602082019050919050565b62000a2c8162000910565b82525050565b600062000a40838362000a21565b60208301905092915050565b6000602082019050919050565b600062000a6682620009f5565b62000a72818562000a00565b935062000a7f8362000a11565b8060005b8381101562000ab657815162000a9a888262000a32565b975062000aa78362000a4c565b92505060018101905062000a83565b5085935050505092915050565b6000602082019050818103600083015262000adf818462000a59565b905092915050565b60006020828403121562000b005762000aff620008b0565b5b600062000b1084828501620008d9565b91505092915050565b60006020828403121562000b325762000b31620008b0565b5b600062000b42848285016200093e565b91505092915050565b62000b5681620008b5565b82525050565b600060c08201905062000b736000830189620009c7565b62000b826020830188620009c7565b62000b91604083018762000b4b565b62000ba0606083018662000b4b565b62000baf6080830185620009c7565b62000bbe60a0830184620009c7565b979650505050505050565b60008151905062000bda8162000924565b92915050565b60006020828403121562000bf95762000bf8620008b0565b5b600062000c098482850162000bc9565b91505092915050565b60008151905062000c2381620008bf565b92915050565b60006020828403121562000c425762000c41620008b0565b5b600062000c528482850162000c12565b91505092915050565b600060208201905062000c72600083018462000b4b565b92915050565b600082825260208201905092915050565b7f4f776e61626c653a2063616c6c6572206973206e6f7420746865206f776e6572600082015250565b600062000cc160208362000c78565b915062000cce8262000c89565b602082019050919050565b6000602082019050818103600083015262000cf48162000cb2565b9050919050565b7f4f776e61626c653a206e6577206f776e657220697320746865207a65726f206160008201527f6464726573730000000000000000000000000000000000000000000000000000602082015250565b600062000d5960268362000c78565b915062000d668262000cfb565b604082019050919050565b6000602082019050818103600083015262000d8c8162000d4a565b905091905056fe60806040523480156200001157600080fd5b50604051620012d5380380620012d58339818101604052810190620000379190620002a4565b600083116200004557600080fd5b8360048190555082600381905550846000806101000a81548173ffffffffffffffffffffffffffffffffffffffff021916908373ffffffffffffffffffffffffffffffffffffffff16021790555085600260006101000a81548173ffffffffffffffffffffffffffffffffffffffff021916908373ffffffffffffffffffffffffffffffffffffffff16021790555081600560006101000a81548173ffffffffffffffffffffffffffffffffffffffff021916908373ffffffffffffffffffffffffffffffffffffffff16021790555080600660006101000a81548173ffffffffffffffffffffffffffffffffffffffff021916908373ffffffffffffffffffffffffffffffffffffffff1602179055506000600660146101000a81548160ff02191690831515021790555081600960006101000a81548173ffffffffffffffffffffffffffffffffffffffff021916908373ffffffffffffffffffffffffffffffffffffffff16021790555080600a60006101000a81548173ffffffffffffffffffffffffffffffffffffffff021916908373ffffffffffffffffffffffffffffffffffffffff16021790555050505050505062000340565b600080fd5b600073ffffffffffffffffffffffffffffffffffffffff82169050919050565b6000620002318262000204565b9050919050565b620002438162000224565b81146200024f57600080fd5b50565b600081519050620002638162000238565b92915050565b6000819050919050565b6200027e8162000269565b81146200028a57600080fd5b50565b6000815190506200029e8162000273565b92915050565b60008060008060008060c08789031215620002c457620002c3620001ff565b5b6000620002d489828a0162000252565b9650506020620002e789828a0162000252565b9550506040620002fa89828a016200028d565b94505060606200030d89828a016200028d565b93505060806200032089828a0162000252565b92505060a06200033389828a0162000252565b9150509295509295509295565b610f8580620003506000396000f3fe608060405234801561001057600080fd5b50600436106101165760003560e01c8063903e329c116100a2578063db83694c11610071578063db83694c14610277578063dbd0e1b614610298578063defd6c5f146102b6578063e50590ae146102d4578063ef0a230e146102f257610116565b8063903e329c1461021357806391f901571461021d578063a8f6c9131461023b578063d57bde791461025957610116565b80631c1cb323116100e95780631c1cb3231461017f57806325b31a971461019d57806338cc4831146101b95780635bf8633a146101d75780637150d8ae146101f557610116565b806308551a531461011b5780630a7f463f1461013957806312fa6feb1461014357806317d70f7c14610161575b600080fd5b610123610310565b6040516101309190610ae1565b60405180910390f35b610141610334565b005b61014b610336565b6040516101589190610b17565b60405180910390f35b610169610349565b6040516101769190610b4b565b60405180910390f35b61018761034f565b6040516101949190610ae1565b60405180910390f35b6101b760048036038101906101b29190610b97565b610375565b005b6101c161086e565b6040516101ce9190610ae1565b60405180910390f35b6101df610876565b6040516101ec9190610ae1565b60405180910390f35b6101fd61089c565b60405161020a9190610ae1565b60405180910390f35b61021b6108c2565b005b61022561098f565b6040516102329190610ae1565b60405180910390f35b6102436109b5565b6040516102509190610c23565b60405180910390f35b6102616109db565b60405161026e9190610b4b565b60405180910390f35b61027f6109e1565b60405161028f9493929190610c3e565b60405180910390f35b6102a0610a41565b6040516102ad9190610ae1565b60405180910390f35b6102be610a6a565b6040516102cb9190610b4b565b60405180910390f35b6102dc610a70565b6040516102e99190610b4b565b60405180910390f35b6102fa610a7a565b6040516103079190610ca4565b60405180910390f35b60008054906101000a900473ffffffffffffffffffffffffffffffffffffffff1681565b565b600660149054906101000a900460ff1681565b60045481565b600560009054906101000a900473ffffffffffffffffffffffffffffffffffffffff1681565b60008054906101000a900473ffffffffffffffffffffffffffffffffffffffff1673ffffffffffffffffffffffffffffffffffffffff163373ffffffffffffffffffffffffffffffffffffffff161415610404576040517f08c379a00000000000000000000000000000000000000000000000000000000081526004016103fb90610d1c565b60405180910390fd5b600960009054906101000a900473ffffffffffffffffffffffffffffffffffffffff1673ffffffffffffffffffffffffffffffffffffffff1663e1f21c678260008054906101000a900473ffffffffffffffffffffffffffffffffffffffff166003546040518463ffffffff1660e01b815260040161048593929190610d3c565b6020604051808303816000875af11580156104a4573d6000803e3d6000fd5b505050506040513d601f19601f820116820180604052508101906104c89190610d9f565b610507576040517f08c379a00000000000000000000000000000000000000000000000000000000081526004016104fe90610e18565b60405180910390fd5b6064600960009054906101000a900473ffffffffffffffffffffffffffffffffffffffff1673ffffffffffffffffffffffffffffffffffffffff1663dd62ed3e8360008054906101000a900473ffffffffffffffffffffffffffffffffffffffff166040518363ffffffff1660e01b8152600401610586929190610e38565b602060405180830381865afa1580156105a3573d6000803e3d6000fd5b505050506040513d601f19601f820116820180604052508101906105c79190610e8d565b14610607576040517f08c379a00000000000000000000000000000000000000000000000000000000081526004016105fe90610f06565b60405180910390fd5b600960009054906101000a900473ffffffffffffffffffffffffffffffffffffffff1673ffffffffffffffffffffffffffffffffffffffff166323b872dd8260008054906101000a900473ffffffffffffffffffffffffffffffffffffffff166003546040518463ffffffff1660e01b815260040161068893929190610d3c565b6020604051808303816000875af11580156106a7573d6000803e3d6000fd5b505050506040513d601f19601f820116820180604052508101906106cb9190610d9f565b50600a60009054906101000a900473ffffffffffffffffffffffffffffffffffffffff1673ffffffffffffffffffffffffffffffffffffffff1663095ea7b3826004546040518363ffffffff1660e01b815260040161072b929190610f26565b600060405180830381600087803b15801561074557600080fd5b505af1158015610759573d6000803e3d6000fd5b50505050600a60009054906101000a900473ffffffffffffffffffffffffffffffffffffffff1673ffffffffffffffffffffffffffffffffffffffff166323b872dd60008054906101000a900473ffffffffffffffffffffffffffffffffffffffff16836004546040518463ffffffff1660e01b81526004016107de93929190610d3c565b600060405180830381600087803b1580156107f857600080fd5b505af115801561080c573d6000803e3d6000fd5b50505050806000806101000a81548173ffffffffffffffffffffffffffffffffffffffff021916908373ffffffffffffffffffffffffffffffffffffffff1602179055506001600660146101000a81548160ff02191690831515021790555050565b600030905090565b600660009054906101000a900473ffffffffffffffffffffffffffffffffffffffff1681565b600160009054906101000a900473ffffffffffffffffffffffffffffffffffffffff1681565b600260009054906101000a900473ffffffffffffffffffffffffffffffffffffffff1673ffffffffffffffffffffffffffffffffffffffff163373ffffffffffffffffffffffffffffffffffffffff161480610969575060008054906101000a900473ffffffffffffffffffffffffffffffffffffffff1673ffffffffffffffffffffffffffffffffffffffff163373ffffffffffffffffffffffffffffffffffffffff16145b61097257600080fd5b6001600660146101000a81548160ff021916908315150217905550565b600760009054906101000a900473ffffffffffffffffffffffffffffffffffffffff1681565b600960009054906101000a900473ffffffffffffffffffffffffffffffffffffffff1681565b60085481565b600080600080600354600454600560009054906101000a900473ffffffffffffffffffffffffffffffffffffffff16600660009054906101000a900473ffffffffffffffffffffffffffffffffffffffff16935093509350935090919293565b60008060009054906101000a900473ffffffffffffffffffffffffffffffffffffffff16905090565b60035481565b6000600454905090565b600a60009054906101000a900473ffffffffffffffffffffffffffffffffffffffff1681565b600073ffffffffffffffffffffffffffffffffffffffff82169050919050565b6000610acb82610aa0565b9050919050565b610adb81610ac0565b82525050565b6000602082019050610af66000830184610ad2565b92915050565b60008115159050919050565b610b1181610afc565b82525050565b6000602082019050610b2c6000830184610b08565b92915050565b6000819050919050565b610b4581610b32565b82525050565b6000602082019050610b606000830184610b3c565b92915050565b600080fd5b610b7481610ac0565b8114610b7f57600080fd5b50565b600081359050610b9181610b6b565b92915050565b600060208284031215610bad57610bac610b66565b5b6000610bbb84828501610b82565b91505092915050565b6000819050919050565b6000610be9610be4610bdf84610aa0565b610bc4565b610aa0565b9050919050565b6000610bfb82610bce565b9050919050565b6000610c0d82610bf0565b9050919050565b610c1d81610c02565b82525050565b6000602082019050610c386000830184610c14565b92915050565b6000608082019050610c536000830187610b3c565b610c606020830186610b3c565b610c6d6040830185610ad2565b610c7a6060830184610ad2565b95945050505050565b6000610c8e82610bf0565b9050919050565b610c9e81610c83565b82525050565b6000602082019050610cb96000830184610c95565b92915050565b600082825260208201905092915050565b7f6869000000000000000000000000000000000000000000000000000000000000600082015250565b6000610d06600283610cbf565b9150610d1182610cd0565b602082019050919050565b60006020820190508181036000830152610d3581610cf9565b9050919050565b6000606082019050610d516000830186610ad2565b610d5e6020830185610ad2565b610d6b6040830184610b3c565b949350505050565b610d7c81610afc565b8114610d8757600080fd5b50565b600081519050610d9981610d73565b92915050565b600060208284031215610db557610db4610b66565b5b6000610dc384828501610d8a565b91505092915050565b7f6869320000000000000000000000000000000000000000000000000000000000600082015250565b6000610e02600383610cbf565b9150610e0d82610dcc565b602082019050919050565b60006020820190508181036000830152610e3181610df5565b9050919050565b6000604082019050610e4d6000830185610ad2565b610e5a6020830184610ad2565b9392505050565b610e6a81610b32565b8114610e7557600080fd5b50565b600081519050610e8781610e61565b92915050565b600060208284031215610ea357610ea2610b66565b5b6000610eb184828501610e78565b91505092915050565b7f7768790000000000000000000000000000000000000000000000000000000000600082015250565b6000610ef0600383610cbf565b9150610efb82610eba565b602082019050919050565b60006020820190508181036000830152610f1f81610ee3565b9050919050565b6000604082019050610f3b6000830185610ad2565b610f486020830184610b3c565b939250505056fea264697066735822122075cdbd5b8453b95e4c7f32eafc584c843cee457d9f55f35ea55268754c5ae39564736f6c634300080a0033a264697066735822122099fae8733c828a6226eaedc8f355dba2ab55437a90242382d475da8f7a3f444364736f6c634300080a0033",
  "immutableReferences": {},
  "source": "// SPDX-License-Identifier: MIT\r\npragma solidity ^0.8.4;\r\n\r\nimport \"./access/Ownable.sol\";\r\nimport \"./token/ERC20/ERC20.sol\";\r\nimport \"./token/ERC721/ERC721.sol\";\r\nimport \"./SsafyNFT.sol\";\r\n\r\n/**\r\n * PJT  - Req.1-SC1 SaleFactory \r\n *    ,      .\r\n */\r\ncontract SaleFactory is Ownable {\r\n    address public admin;\r\n    address[] public sales;\r\n\r\n    event NewSale(\r\n        address indexed _saleContract,\r\n        address indexed _owner,\r\n        uint256 _workId\r\n    );\r\n\r\n    constructor() {\r\n        admin = msg.sender;\r\n    }\r\n\r\n    /**\r\n     * @dev   . \r\n     */\r\n    function createSale(\r\n        uint256 itemId,\r\n        uint256 purchasePrice,\r\n        address currencyAddress,\r\n        address nftAddress\r\n    ) public returns (address) {\r\n        // TODO\r\n        Sale newContract = new Sale(admin, admin, itemId, purchasePrice, currencyAddress, nftAddress);\r\n        emit NewSale(newContract.getAddress(), newContract.getSeller(), newContract.gettokenId());\r\n        sales.push(newContract.getAddress());\r\n        return newContract.getAddress();\r\n    }\r\n\r\n    function allSales() public view returns (address[] memory) {\r\n        return sales;\r\n    }\r\n}\r\n\r\n/**\r\n *  PJT  - Req.1-SC2) Sale \r\n */\r\ncontract Sale {\r\n    //    \r\n    address public seller;\r\n    address public buyer;\r\n    address admin;\r\n    uint256 public purchasePrice;\r\n    uint256 public tokenId;\r\n    address public currencyAddress;\r\n    address public nftAddress;\r\n    bool public ended;\r\n\r\n    //    \r\n    address public highestBidder;\r\n    uint256 public highestBid;\r\n\r\n    IERC20 public erc20Contract;\r\n    IERC721 public erc721Constract;\r\n\r\n    event SaleEnded(address winner, uint256 amount);\r\n\r\n    constructor(\r\n        address _admin,\r\n        address _seller,\r\n        uint256 _tokenId,\r\n        uint256 _purchasePrice,\r\n        address _currencyAddress,\r\n        address _nftAddress\r\n    ) {\r\n        require(_purchasePrice > 0);\r\n        tokenId = _tokenId;\r\n        purchasePrice = _purchasePrice;\r\n        seller = _seller;\r\n        admin = _admin;\r\n        currencyAddress = _currencyAddress;\r\n        nftAddress = _nftAddress;\r\n        ended = false;\r\n        erc20Contract = ERC20(_currencyAddress);\r\n        erc721Constract = IERC721(_nftAddress);\r\n    }\r\n\r\n    function purchase(address _buyer) public { \r\n        // TODO\r\n        require(msg.sender != seller,\"hi\");\r\n        require(erc20Contract.approve(_buyer, seller, purchasePrice),\"hi2\");\r\n        require(erc20Contract.allowance(_buyer,seller) == 100, \"why\");\r\n\r\n        erc20Contract.transferFrom(_buyer,seller , purchasePrice); //      \r\n\r\n        erc721Constract.approve(_buyer, tokenId);\r\n        erc721Constract.transferFrom(seller, _buyer, tokenId); //erc721Constract // NFT  \r\n        seller = _buyer;\r\n        ended = true;//      \r\n    }\r\n\r\n    function confirmItem() public {\r\n        // TODO \r\n    }\r\n    \r\n    function cancelSales() public{\r\n        // TODO\r\n        require(msg.sender == admin || msg.sender == seller);\r\n        ended = true;\r\n    }\r\n\r\n    function getAddress() public view returns (address){\r\n        return address(this);\r\n    }\r\n\r\n    function getSeller() public view returns (address){\r\n        return seller;\r\n    }\r\n\r\n    function gettokenId() public view returns (uint256){\r\n        return tokenId;\r\n    }\r\n\r\n    function getSaleInfo()\r\n        public\r\n        view\r\n        returns (\r\n            uint256,\r\n            uint256,\r\n            address,\r\n            address\r\n        )\r\n    {\r\n        return (\r\n            purchasePrice,\r\n            tokenId,\r\n            currencyAddress,\r\n            nftAddress\r\n        );\r\n    }\r\n\r\n\r\n    // internal  private     _  .\r\n    function _end() internal {\r\n        ended = true;\r\n    }\r\n\r\n    function _getCurrencyAmount() private view returns (uint256) { \r\n        return erc20Contract.balanceOf(msg.sender); //     \r\n    }\r\n\r\n    // modifier       . \r\n    modifier onlySeller() {\r\n        require(msg.sender == seller, \"Sale: You are not seller.\"); \r\n        _;\r\n    }\r\n}\r\n",
  "sourcePath": "C:\\Users\\ssafy\\nft-sub2\\S06P22A107\\smart-contracts\\contracts\\SaleFactory.sol",
  "compiler": {
    "name": "solc",
    "version": "0.8.10+commit.fc410830.Emscripten.clang"
  },
  "schemaVersion": "3.4.5",
  "updatedAt": "2022-04-01T17:55:03.226Z",
  "networkType": "ethereum",
  "devdoc": {
    "kind": "dev",
    "methods": {
      "createSale(uint256,uint256,address,address)": {
        "details": "  . "
      },
      "owner()": {
        "details": "Returns the address of the current owner."
      },
      "renounceOwnership()": {
        "details": "Leaves the contract without owner. It will not be possible to call `onlyOwner` functions anymore. Can only be called by the current owner. NOTE: Renouncing ownership will leave the contract without an owner, thereby removing any functionality that is only available to the owner."
      },
      "transferOwnership(address)": {
        "details": "Transfers ownership of the contract to a new account (`newOwner`). Can only be called by the current owner."
      }
    },
    "version": 1
  },
  "userdoc": {
    "kind": "user",
    "methods": {},
    "notice": "PJT  - Req.1-SC1 SaleFactory     ,      .",
    "version": 1
  }
}