{
  "contractName": "SaleFactory",
  "abi": [
    {
      "inputs": [
        {
          "internalType": "address",
          "name": "_SsafyNFTAddresss",
          "type": "address"
        }
      ],
      "stateMutability": "nonpayable",
      "type": "constructor"
    },
    {
      "anonymous": false,
      "inputs": [
        {
          "indexed": true,
          "internalType": "address",
          "name": "_saleContract",
          "type": "address"
        },
        {
          "indexed": true,
          "internalType": "address",
          "name": "_owner",
          "type": "address"
        },
        {
          "indexed": false,
          "internalType": "uint256",
          "name": "_workId",
          "type": "uint256"
        }
      ],
      "name": "NewSale",
      "type": "event"
    },
    {
      "anonymous": false,
      "inputs": [
        {
          "indexed": true,
          "internalType": "address",
          "name": "previousOwner",
          "type": "address"
        },
        {
          "indexed": true,
          "internalType": "address",
          "name": "newOwner",
          "type": "address"
        }
      ],
      "name": "OwnershipTransferred",
      "type": "event"
    },
    {
      "inputs": [],
      "name": "SsafyNFTAddresss",
      "outputs": [
        {
          "internalType": "contract SsafyNFT",
          "name": "",
          "type": "address"
        }
      ],
      "stateMutability": "view",
      "type": "function"
    },
    {
      "inputs": [],
      "name": "admin",
      "outputs": [
        {
          "internalType": "address",
          "name": "",
          "type": "address"
        }
      ],
      "stateMutability": "view",
      "type": "function"
    },
    {
      "inputs": [],
      "name": "owner",
      "outputs": [
        {
          "internalType": "address",
          "name": "",
          "type": "address"
        }
      ],
      "stateMutability": "view",
      "type": "function"
    },
    {
      "inputs": [],
      "name": "renounceOwnership",
      "outputs": [],
      "stateMutability": "nonpayable",
      "type": "function"
    },
    {
      "inputs": [
        {
          "internalType": "uint256",
          "name": "",
          "type": "uint256"
        }
      ],
      "name": "sales",
      "outputs": [
        {
          "internalType": "address",
          "name": "",
          "type": "address"
        }
      ],
      "stateMutability": "view",
      "type": "function"
    },
    {
      "inputs": [],
      "name": "test",
      "outputs": [
        {
          "internalType": "address",
          "name": "",
          "type": "address"
        }
      ],
      "stateMutability": "view",
      "type": "function"
    },
    {
      "inputs": [
        {
          "internalType": "address",
          "name": "newOwner",
          "type": "address"
        }
      ],
      "name": "transferOwnership",
      "outputs": [],
      "stateMutability": "nonpayable",
      "type": "function"
    },
    {
      "inputs": [
        {
          "internalType": "uint256",
          "name": "itemId",
          "type": "uint256"
        },
        {
          "internalType": "uint256",
          "name": "purchasePrice",
          "type": "uint256"
        },
        {
          "internalType": "uint256",
          "name": "startTime",
          "type": "uint256"
        },
        {
          "internalType": "uint256",
          "name": "endTime",
          "type": "uint256"
        },
        {
          "internalType": "address",
          "name": "currencyAddress",
          "type": "address"
        },
        {
          "internalType": "address",
          "name": "nftAddress",
          "type": "address"
        }
      ],
      "name": "createSale",
      "outputs": [
        {
          "internalType": "address",
          "name": "",
          "type": "address"
        }
      ],
      "stateMutability": "nonpayable",
      "type": "function"
    },
    {
      "inputs": [],
      "name": "allSales",
      "outputs": [
        {
          "internalType": "address[]",
          "name": "",
          "type": "address[]"
        }
      ],
      "stateMutability": "view",
      "type": "function"
    }
  ],
  "bytecode": "0x60806040523480156200001157600080fd5b506040516200259938038062002599833981810160405281019062000037919062000257565b620000576200004b6200012160201b60201c565b6200012960201b60201c565b33600160006101000a81548173ffffffffffffffffffffffffffffffffffffffff021916908373ffffffffffffffffffffffffffffffffffffffff16021790555080600360006101000a81548173ffffffffffffffffffffffffffffffffffffffff021916908373ffffffffffffffffffffffffffffffffffffffff16021790555080600460006101000a81548173ffffffffffffffffffffffffffffffffffffffff021916908373ffffffffffffffffffffffffffffffffffffffff1602179055505062000289565b600033905090565b60008060009054906101000a900473ffffffffffffffffffffffffffffffffffffffff169050816000806101000a81548173ffffffffffffffffffffffffffffffffffffffff021916908373ffffffffffffffffffffffffffffffffffffffff1602179055508173ffffffffffffffffffffffffffffffffffffffff168173ffffffffffffffffffffffffffffffffffffffff167f8be0079c531659141344cd1fd0a4f28419497f9722a3daafe3b4186f6b6457e060405160405180910390a35050565b600080fd5b600073ffffffffffffffffffffffffffffffffffffffff82169050919050565b60006200021f82620001f2565b9050919050565b620002318162000212565b81146200023d57600080fd5b50565b600081519050620002518162000226565b92915050565b60006020828403121562000270576200026f620001ed565b5b6000620002808482850162000240565b91505092915050565b61230080620002996000396000f3fe60806040523480156200001157600080fd5b5060043610620000a05760003560e01c8063b126a61b116200006f578063b126a61b146200012b578063b5f522f7146200014d578063f2fde38b1462000183578063f851a44014620001a3578063f8a8fd6d14620001c557620000a0565b806368f3d87c14620000a55780636eafecba14620000db578063715018a614620000fd5780638da5cb5b1462000109575b600080fd5b620000c36004803603810190620000bd91906200096c565b620001e7565b604051620000d2919062000a19565b60405180910390f35b620000e5620004ed565b604051620000f4919062000b04565b60405180910390f35b620001076200057d565b005b620001136200060e565b60405162000122919062000a19565b60405180910390f35b6200013562000637565b60405162000144919062000b93565b60405180910390f35b6200016b600480360381019062000165919062000bb0565b6200065d565b6040516200017a919062000a19565b60405180910390f35b620001a160048036038101906200019b919062000be2565b6200069d565b005b620001ad620007a1565b604051620001bc919062000a19565b60405180910390f35b620001cf620007c7565b604051620001de919062000a19565b60405180910390f35b6000736c927304104cdaa5a8b3691e0ade8a3ded41a3339250600460009054906101000a900473ffffffffffffffffffffffffffffffffffffffff1691506000600160009054906101000a900473ffffffffffffffffffffffffffffffffffffffff16600160009054906101000a900473ffffffffffffffffffffffffffffffffffffffff168989898989896040516200028190620008b9565b6200029498979695949392919062000c25565b604051809103906000f080158015620002b1573d6000803e3d6000fd5b5090508073ffffffffffffffffffffffffffffffffffffffff166308551a536040518163ffffffff1660e01b8152600401602060405180830381865afa15801562000300573d6000803e3d6000fd5b505050506040513d601f19601f8201168201806040525081019062000326919062000cca565b73ffffffffffffffffffffffffffffffffffffffff168173ffffffffffffffffffffffffffffffffffffffff16635bf8633a6040518163ffffffff1660e01b8152600401602060405180830381865afa15801562000388573d6000803e3d6000fd5b505050506040513d601f19601f82011682018060405250810190620003ae919062000cca565b73ffffffffffffffffffffffffffffffffffffffff167f874bdb649427dfeceaa7f10beee59a823d3e45a6814f50bc18ba2adefd058e488373ffffffffffffffffffffffffffffffffffffffff166317d70f7c6040518163ffffffff1660e01b8152600401602060405180830381865afa15801562000431573d6000803e3d6000fd5b505050506040513d601f19601f8201168201806040525081019062000457919062000d13565b60405162000466919062000d45565b60405180910390a38073ffffffffffffffffffffffffffffffffffffffff16635bf8633a6040518163ffffffff1660e01b8152600401602060405180830381865afa158015620004ba573d6000803e3d6000fd5b505050506040513d601f19601f82011682018060405250810190620004e0919062000cca565b9150509695505050505050565b606060028054806020026020016040519081016040528092919081815260200182805480156200057357602002820191906000526020600020905b8160009054906101000a900473ffffffffffffffffffffffffffffffffffffffff1673ffffffffffffffffffffffffffffffffffffffff168152602001906001019080831162000528575b5050505050905090565b62000587620007ed565b73ffffffffffffffffffffffffffffffffffffffff16620005a76200060e565b73ffffffffffffffffffffffffffffffffffffffff161462000600576040517f08c379a0000000000000000000000000000000000000000000000000000000008152600401620005f79062000dc3565b60405180910390fd5b6200060c6000620007f5565b565b60008060009054906101000a900473ffffffffffffffffffffffffffffffffffffffff16905090565b600360009054906101000a900473ffffffffffffffffffffffffffffffffffffffff1681565b600281815481106200066e57600080fd5b906000526020600020016000915054906101000a900473ffffffffffffffffffffffffffffffffffffffff1681565b620006a7620007ed565b73ffffffffffffffffffffffffffffffffffffffff16620006c76200060e565b73ffffffffffffffffffffffffffffffffffffffff161462000720576040517f08c379a0000000000000000000000000000000000000000000000000000000008152600401620007179062000dc3565b60405180910390fd5b600073ffffffffffffffffffffffffffffffffffffffff168173ffffffffffffffffffffffffffffffffffffffff16141562000793576040517f08c379a00000000000000000000000000000000000000000000000000000000081526004016200078a9062000e5b565b60405180910390fd5b6200079e81620007f5565b50565b600160009054906101000a900473ffffffffffffffffffffffffffffffffffffffff1681565b600460009054906101000a900473ffffffffffffffffffffffffffffffffffffffff1681565b600033905090565b60008060009054906101000a900473ffffffffffffffffffffffffffffffffffffffff169050816000806101000a81548173ffffffffffffffffffffffffffffffffffffffff021916908373ffffffffffffffffffffffffffffffffffffffff1602179055508173ffffffffffffffffffffffffffffffffffffffff168173ffffffffffffffffffffffffffffffffffffffff167f8be0079c531659141344cd1fd0a4f28419497f9722a3daafe3b4186f6b6457e060405160405180910390a35050565b61144d8062000e7e83390190565b600080fd5b6000819050919050565b620008e181620008cc565b8114620008ed57600080fd5b50565b6000813590506200090181620008d6565b92915050565b600073ffffffffffffffffffffffffffffffffffffffff82169050919050565b6000620009348262000907565b9050919050565b620009468162000927565b81146200095257600080fd5b50565b60008135905062000966816200093b565b92915050565b60008060008060008060c087890312156200098c576200098b620008c7565b5b60006200099c89828a01620008f0565b9650506020620009af89828a01620008f0565b9550506040620009c289828a01620008f0565b9450506060620009d589828a01620008f0565b9350506080620009e889828a0162000955565b92505060a0620009fb89828a0162000955565b9150509295509295509295565b62000a138162000927565b82525050565b600060208201905062000a30600083018462000a08565b92915050565b600081519050919050565b600082825260208201905092915050565b6000819050602082019050919050565b62000a6d8162000927565b82525050565b600062000a81838362000a62565b60208301905092915050565b6000602082019050919050565b600062000aa78262000a36565b62000ab3818562000a41565b935062000ac08362000a52565b8060005b8381101562000af757815162000adb888262000a73565b975062000ae88362000a8d565b92505060018101905062000ac4565b5085935050505092915050565b6000602082019050818103600083015262000b20818462000a9a565b905092915050565b6000819050919050565b600062000b5362000b4d62000b478462000907565b62000b28565b62000907565b9050919050565b600062000b678262000b32565b9050919050565b600062000b7b8262000b5a565b9050919050565b62000b8d8162000b6e565b82525050565b600060208201905062000baa600083018462000b82565b92915050565b60006020828403121562000bc95762000bc8620008c7565b5b600062000bd984828501620008f0565b91505092915050565b60006020828403121562000bfb5762000bfa620008c7565b5b600062000c0b8482850162000955565b91505092915050565b62000c1f81620008cc565b82525050565b60006101008201905062000c3d600083018b62000a08565b62000c4c602083018a62000a08565b62000c5b604083018962000c14565b62000c6a606083018862000c14565b62000c79608083018762000c14565b62000c8860a083018662000c14565b62000c9760c083018562000a08565b62000ca660e083018462000a08565b9998505050505050505050565b60008151905062000cc4816200093b565b92915050565b60006020828403121562000ce35762000ce2620008c7565b5b600062000cf38482850162000cb3565b91505092915050565b60008151905062000d0d81620008d6565b92915050565b60006020828403121562000d2c5762000d2b620008c7565b5b600062000d3c8482850162000cfc565b91505092915050565b600060208201905062000d5c600083018462000c14565b92915050565b600082825260208201905092915050565b7f4f776e61626c653a2063616c6c6572206973206e6f7420746865206f776e6572600082015250565b600062000dab60208362000d62565b915062000db88262000d73565b602082019050919050565b6000602082019050818103600083015262000dde8162000d9c565b9050919050565b7f4f776e61626c653a206e6577206f776e657220697320746865207a65726f206160008201527f6464726573730000000000000000000000000000000000000000000000000000602082015250565b600062000e4360268362000d62565b915062000e508262000de5565b604082019050919050565b6000602082019050818103600083015262000e768162000e34565b905091905056fe60806040523480156200001157600080fd5b506040516200144d3803806200144d8339818101604052810190620000379190620002b4565b600085116200004557600080fd5b8560068190555084600581905550866000806101000a81548173ffffffffffffffffffffffffffffffffffffffff021916908373ffffffffffffffffffffffffffffffffffffffff16021790555087600260006101000a81548173ffffffffffffffffffffffffffffffffffffffff021916908373ffffffffffffffffffffffffffffffffffffffff160217905550836003819055508260048190555081600760006101000a81548173ffffffffffffffffffffffffffffffffffffffff021916908373ffffffffffffffffffffffffffffffffffffffff16021790555080600860006101000a81548173ffffffffffffffffffffffffffffffffffffffff021916908373ffffffffffffffffffffffffffffffffffffffff1602179055506000600860146101000a81548160ff02191690831515021790555081600b60006101000a81548173ffffffffffffffffffffffffffffffffffffffff021916908373ffffffffffffffffffffffffffffffffffffffff16021790555080600c60006101000a81548173ffffffffffffffffffffffffffffffffffffffff021916908373ffffffffffffffffffffffffffffffffffffffff16021790555050505050505050506200037d565b600080fd5b600073ffffffffffffffffffffffffffffffffffffffff82169050919050565b6000620002418262000214565b9050919050565b620002538162000234565b81146200025f57600080fd5b50565b600081519050620002738162000248565b92915050565b6000819050919050565b6200028e8162000279565b81146200029a57600080fd5b50565b600081519050620002ae8162000283565b92915050565b600080600080600080600080610100898b031215620002d857620002d76200020f565b5b6000620002e88b828c0162000262565b9850506020620002fb8b828c0162000262565b97505060406200030e8b828c016200029d565b9650506060620003218b828c016200029d565b9550506080620003348b828c016200029d565b94505060a0620003478b828c016200029d565b93505060c06200035a8b828c0162000262565b92505060e06200036d8b828c0162000262565b9150509295985092959890939650565b6110c0806200038d6000396000f3fe608060405234801561001057600080fd5b506004361061012c5760003560e01c80637150d8ae116100ad578063d57bde7911610071578063d57bde79146102b5578063db83694c146102d3578063defd6c5f146102f8578063ed338ff114610316578063ef0a230e146103345761012c565b80637150d8ae14610233578063903e329c1461025157806391f901571461025b578063a8f6c91314610279578063c7e284b8146102975761012c565b80631cbaee2d116100f45780631cbaee2d146101b3578063454a2ab3146101d15780634979440a146101ed5780635bf8633a1461020b57806364edfbf0146102295761012c565b806308551a53146101315780630a7f463f1461014f57806312fa6feb1461015957806317d70f7c146101775780631c1cb32314610195575b600080fd5b610139610352565b6040516101469190610c71565b60405180910390f35b610157610376565b005b61016161048f565b60405161016e9190610ca7565b60405180910390f35b61017f6104a2565b60405161018c9190610cdb565b60405180910390f35b61019d6104a8565b6040516101aa9190610c71565b60405180910390f35b6101bb6104ce565b6040516101c89190610cdb565b60405180910390f35b6101eb60048036038101906101e69190610d27565b6104d4565b005b6101f561068f565b6040516102029190610cdb565b60405180910390f35b610213610699565b6040516102209190610c71565b60405180910390f35b6102316106bf565b005b61023b610a05565b6040516102489190610c71565b60405180910390f35b610259610a2b565b005b610263610af9565b6040516102709190610c71565b60405180910390f35b610281610b1f565b60405161028e9190610db3565b60405180910390f35b61029f610b45565b6040516102ac9190610de7565b60405180910390f35b6102bd610b5a565b6040516102ca9190610cdb565b60405180910390f35b6102db610b60565b6040516102ef989796959493929190610e02565b60405180910390f35b610300610bfe565b60405161030d9190610cdb565b60405180910390f35b61031e610c04565b60405161032b9190610cdb565b60405180910390f35b61033c610c0a565b6040516103499190610ea1565b60405180910390f35b60008054906101000a900473ffffffffffffffffffffffffffffffffffffffff1681565b6000610380610b45565b90506000811261038f57600080fd5b600960009054906101000a900473ffffffffffffffffffffffffffffffffffffffff1673ffffffffffffffffffffffffffffffffffffffff163373ffffffffffffffffffffffffffffffffffffffff16146103e957600080fd5b600b60009054906101000a900473ffffffffffffffffffffffffffffffffffffffff1673ffffffffffffffffffffffffffffffffffffffff1663a9059cbb336005546040518363ffffffff1660e01b8152600401610448929190610ebc565b6020604051808303816000875af1158015610467573d6000803e3d6000fd5b505050506040513d601f19601f8201168201806040525081019061048b9190610f11565b5050565b600860149054906101000a900460ff1681565b60065481565b600760009054906101000a900473ffffffffffffffffffffffffffffffffffffffff1681565b60035481565b60008054906101000a900473ffffffffffffffffffffffffffffffffffffffff1673ffffffffffffffffffffffffffffffffffffffff163373ffffffffffffffffffffffffffffffffffffffff1614610562576040517f08c379a000000000000000000000000000000000000000000000000000000000815260040161055990610f9b565b60405180910390fd5b6003544210156105a7576040517f08c379a000000000000000000000000000000000000000000000000000000000815260040161059e90611007565b60405180910390fd5b60006105b1610b45565b9050600081136105c057600080fd5b600b60009054906101000a900473ffffffffffffffffffffffffffffffffffffffff1673ffffffffffffffffffffffffffffffffffffffff1663095ea7b3600160009054906101000a900473ffffffffffffffffffffffffffffffffffffffff16846040518363ffffffff1660e01b815260040161063f929190610ebc565b6020604051808303816000875af115801561065e573d6000803e3d6000fd5b505050506040513d601f19601f820116820180604052508101906106829190610f11565b61068b57600080fd5b5050565b6000600a54905090565b600860009054906101000a900473ffffffffffffffffffffffffffffffffffffffff1681565b60008054906101000a900473ffffffffffffffffffffffffffffffffffffffff1673ffffffffffffffffffffffffffffffffffffffff163373ffffffffffffffffffffffffffffffffffffffff161461074d576040517f08c379a000000000000000000000000000000000000000000000000000000000815260040161074490610f9b565b60405180910390fd5b600354421015610792576040517f08c379a000000000000000000000000000000000000000000000000000000000815260040161078990611007565b60405180910390fd5b600061079c610b45565b9050600081136107ab57600080fd5b600b60009054906101000a900473ffffffffffffffffffffffffffffffffffffffff1673ffffffffffffffffffffffffffffffffffffffff1663095ea7b3600160009054906101000a900473ffffffffffffffffffffffffffffffffffffffff166005546040518363ffffffff1660e01b815260040161082c929190610ebc565b6020604051808303816000875af115801561084b573d6000803e3d6000fd5b505050506040513d601f19601f8201168201806040525081019061086f9190610f11565b61087857600080fd5b600b60009054906101000a900473ffffffffffffffffffffffffffffffffffffffff1673ffffffffffffffffffffffffffffffffffffffff1663a9059cbb600160009054906101000a900473ffffffffffffffffffffffffffffffffffffffff166005546040518363ffffffff1660e01b81526004016108f9929190610ebc565b6020604051808303816000875af1158015610918573d6000803e3d6000fd5b505050506040513d601f19601f8201168201806040525081019061093c9190610f11565b50600b60009054906101000a900473ffffffffffffffffffffffffffffffffffffffff1673ffffffffffffffffffffffffffffffffffffffff1663095ea7b3600160009054906101000a900473ffffffffffffffffffffffffffffffffffffffff166005546040518363ffffffff1660e01b81526004016109be929190610ebc565b6020604051808303816000875af11580156109dd573d6000803e3d6000fd5b505050506040513d601f19601f82011682018060405250810190610a019190610f11565b5050565b600160009054906101000a900473ffffffffffffffffffffffffffffffffffffffff1681565b6000610a35610b45565b905060008113610a4457600080fd5b600260009054906101000a900473ffffffffffffffffffffffffffffffffffffffff1673ffffffffffffffffffffffffffffffffffffffff163373ffffffffffffffffffffffffffffffffffffffff1614610a9e57600080fd5b60008054906101000a900473ffffffffffffffffffffffffffffffffffffffff1673ffffffffffffffffffffffffffffffffffffffff163373ffffffffffffffffffffffffffffffffffffffff1614610af657600080fd5b50565b600960009054906101000a900473ffffffffffffffffffffffffffffffffffffffff1681565b600b60009054906101000a900473ffffffffffffffffffffffffffffffffffffffff1681565b600042600454610b559190611056565b905090565b600a5481565b600080600080600080600080600354600454600554600654600960009054906101000a900473ffffffffffffffffffffffffffffffffffffffff16600a54600760009054906101000a900473ffffffffffffffffffffffffffffffffffffffff16600860009054906101000a900473ffffffffffffffffffffffffffffffffffffffff16975097509750975097509750975097509091929394959697565b60055481565b60045481565b600c60009054906101000a900473ffffffffffffffffffffffffffffffffffffffff1681565b600073ffffffffffffffffffffffffffffffffffffffff82169050919050565b6000610c5b82610c30565b9050919050565b610c6b81610c50565b82525050565b6000602082019050610c866000830184610c62565b92915050565b60008115159050919050565b610ca181610c8c565b82525050565b6000602082019050610cbc6000830184610c98565b92915050565b6000819050919050565b610cd581610cc2565b82525050565b6000602082019050610cf06000830184610ccc565b92915050565b600080fd5b610d0481610cc2565b8114610d0f57600080fd5b50565b600081359050610d2181610cfb565b92915050565b600060208284031215610d3d57610d3c610cf6565b5b6000610d4b84828501610d12565b91505092915050565b6000819050919050565b6000610d79610d74610d6f84610c30565b610d54565b610c30565b9050919050565b6000610d8b82610d5e565b9050919050565b6000610d9d82610d80565b9050919050565b610dad81610d92565b82525050565b6000602082019050610dc86000830184610da4565b92915050565b6000819050919050565b610de181610dce565b82525050565b6000602082019050610dfc6000830184610dd8565b92915050565b600061010082019050610e18600083018b610ccc565b610e25602083018a610ccc565b610e326040830189610ccc565b610e3f6060830188610ccc565b610e4c6080830187610c62565b610e5960a0830186610ccc565b610e6660c0830185610c62565b610e7360e0830184610c62565b9998505050505050505050565b6000610e8b82610d80565b9050919050565b610e9b81610e80565b82525050565b6000602082019050610eb66000830184610e92565b92915050565b6000604082019050610ed16000830185610c62565b610ede6020830184610ccc565b9392505050565b610eee81610c8c565b8114610ef957600080fd5b50565b600081519050610f0b81610ee5565b92915050565b600060208284031215610f2757610f26610cf6565b5b6000610f3584828501610efc565b91505092915050565b600082825260208201905092915050565b7f53616c653a20596f7520617265206e6f742073656c6c65722e00000000000000600082015250565b6000610f85601983610f3e565b9150610f9082610f4f565b602082019050919050565b60006020820190508181036000830152610fb481610f78565b9050919050565b7f53616c653a20546869732073616c65206973206e6f7420737461727465642e00600082015250565b6000610ff1601f83610f3e565b9150610ffc82610fbb565b602082019050919050565b6000602082019050818103600083015261102081610fe4565b9050919050565b7f4e487b7100000000000000000000000000000000000000000000000000000000600052601160045260246000fd5b600061106182610cc2565b915061106c83610cc2565b92508282101561107f5761107e611027565b5b82820390509291505056fea2646970667358221220e712eb03b8e6a14c01c8913aa422d6bc76c7f551df3d0e7d206b56b1d7cb4b7d64736f6c634300080a0033a2646970667358221220af49a7cfc1ae6dd5414a4db69d179a2642e4b3d220b55fc56e3f4f86df39936364736f6c634300080a0033",
  "immutableReferences": {},
  "source": "// SPDX-License-Identifier: MIT\r\npragma solidity ^0.8.4;\r\n\r\nimport \"./access/Ownable.sol\";\r\nimport \"./token/ERC20/ERC20.sol\";\r\nimport \"./token/ERC721/ERC721.sol\";\r\nimport \"./SsafyNFT.sol\";\r\n\r\n/**\r\n * PJT  - Req.1-SC1 SaleFactory \r\n *    ,      .\r\n */\r\ncontract SaleFactory is Ownable {\r\n    address public admin;\r\n    address[] public sales;\r\n    SsafyNFT public SsafyNFTAddresss;\r\n    address public test;\r\n    event NewSale(\r\n        address indexed _saleContract,\r\n        address indexed _owner,\r\n        uint256 _workId\r\n    );\r\n\r\n    constructor(address _SsafyNFTAddresss) {\r\n        admin = msg.sender;\r\n        SsafyNFTAddresss = SsafyNFT(_SsafyNFTAddresss);\r\n        test = _SsafyNFTAddresss;\r\n    }\r\n\r\n    /**\r\n     * @dev   . \r\n     */\r\n    function createSale(\r\n        uint256 itemId,\r\n        // uint256 minPrice,\r\n        uint256 purchasePrice,\r\n        uint256 startTime,\r\n        uint256 endTime,\r\n        address currencyAddress,\r\n        address nftAddress\r\n    ) public returns (address) {\r\n        // TODO\r\n        currencyAddress = 0x6C927304104cdaa5a8b3691E0ADE8a3ded41a333;\r\n        nftAddress = test;\r\n        Sale newContract = new Sale(admin,admin,itemId,purchasePrice,startTime,endTime,currencyAddress,nftAddress);\r\n        emit NewSale(newContract.nftAddress(), newContract.seller(), newContract.tokenId());\r\n        return newContract.nftAddress();\r\n        // return \r\n    }\r\n\r\n    function allSales() public view returns (address[] memory) {\r\n        return sales;\r\n    }\r\n}\r\n\r\n/**\r\n *  PJT  - Req.1-SC2) Sale \r\n */\r\ncontract Sale {\r\n    //    \r\n    address public seller;\r\n    address public buyer;\r\n    address admin;\r\n    uint256 public saleStartTime;\r\n    uint256 public saleEndTime;\r\n    //uint256 public minPrice;\r\n    uint256 public purchasePrice;\r\n    uint256 public tokenId;\r\n    address public currencyAddress;\r\n    address public nftAddress;\r\n    bool public ended;\r\n\r\n    //    \r\n    address public highestBidder;\r\n    uint256 public highestBid;\r\n\r\n    IERC20 public erc20Contract;\r\n    IERC721 public erc721Constract;\r\n\r\n    event HighestBidIncereased(address bidder, uint256 amount);\r\n    event SaleEnded(address winner, uint256 amount);\r\n\r\n    constructor(\r\n        address _admin,\r\n        address _seller,\r\n        uint256 _tokenId,\r\n        //uint256 _minPrice,\r\n        uint256 _purchasePrice,\r\n        uint256 startTime,\r\n        uint256 endTime,\r\n        address _currencyAddress,\r\n        address _nftAddress\r\n    ) {\r\n        require(_purchasePrice > 0); // _minPrice > 0\r\n        tokenId = _tokenId;\r\n        //minPrice = _minPrice;\r\n        purchasePrice = _purchasePrice;\r\n        seller = _seller;\r\n        admin = _admin;\r\n        saleStartTime = startTime;\r\n        saleEndTime = endTime;\r\n        currencyAddress = _currencyAddress;\r\n        nftAddress = _nftAddress;\r\n        ended = false;\r\n        erc20Contract = IERC20(_currencyAddress);\r\n        erc721Constract = IERC721(_nftAddress);\r\n    }\r\n\r\n    function bid(uint256 bid_amount) public onlySeller onlyAfterStart{\r\n        // TODO\r\n        int256 success = getTimeLeft();\r\n        require(success > 0);\r\n        require(erc20Contract.approve(buyer, bid_amount));\r\n    }\r\n\r\n    function purchase() public onlySeller onlyAfterStart{\r\n        // TODO \r\n        int256 success = getTimeLeft();\r\n        require(success > 0);\r\n        require(erc20Contract.approve(buyer, purchasePrice));\r\n\r\n        erc20Contract.transfer(buyer,purchasePrice); //      \r\n        erc20Contract.approve(buyer,purchasePrice); \r\n        //erc721Constract // NFT  \r\n        //      \r\n\r\n\r\n    }\r\n\r\n    function confirmItem() public {\r\n        // TODO \r\n        int256 success = getTimeLeft();\r\n        require(success < 0);\r\n        require(msg.sender == highestBidder);\r\n        \r\n        erc20Contract.transfer(msg.sender,purchasePrice);\r\n        //erc721Constract // NFT  \r\n        //      \r\n    }\r\n    \r\n    function cancelSales() public view{\r\n        // TODO\r\n        int256 success = getTimeLeft();\r\n        require(success > 0);\r\n        require(msg.sender == admin);\r\n        require(msg.sender == seller);\r\n\r\n        //_burn // \r\n        // NFT \r\n        //    \r\n\r\n    }\r\n\r\n    function getTimeLeft() public view returns (int256) {\r\n        return (int256)(saleEndTime - block.timestamp);\r\n    }\r\n\r\n    function getSaleInfo()\r\n        public\r\n        view\r\n        returns (\r\n            uint256,\r\n            uint256,\r\n            //uint256,\r\n            uint256,\r\n            uint256,\r\n            address,\r\n            uint256,\r\n            address,\r\n            address\r\n        )\r\n    {\r\n        return (\r\n            saleStartTime,\r\n            saleEndTime,\r\n            //minPrice,\r\n            purchasePrice,\r\n            tokenId,\r\n            highestBidder,\r\n            highestBid,\r\n            currencyAddress,\r\n            nftAddress\r\n        );\r\n    }\r\n\r\n    function getHighestBid() public view returns(uint256){\r\n        return highestBid;\r\n    }\r\n\r\n    // internal  private     _  .\r\n    function _end() internal {\r\n        ended = true;\r\n    }\r\n\r\n    function _getCurrencyAmount() private view returns (uint256) { \r\n        return erc20Contract.balanceOf(msg.sender); //     \r\n    }\r\n\r\n    // modifier       . \r\n    modifier onlySeller() {\r\n        require(msg.sender == seller, \"Sale: You are not seller.\"); \r\n        _;\r\n    }\r\n\r\n    modifier onlyAfterStart() {\r\n        require(\r\n            block.timestamp >= saleStartTime,\r\n            \"Sale: This sale is not started.\"\r\n        );\r\n        _;\r\n    }\r\n}\r\n",
  "sourcePath": "C:\\Users\\ssafy\\nft-sub2\\S06P22A107\\smart-contracts\\contracts\\SaleFactory.sol",
  "compiler": {
    "name": "solc",
    "version": "0.8.10+commit.fc410830.Emscripten.clang"
  },
  "schemaVersion": "3.4.5",
  "updatedAt": "2022-03-22T02:52:42.558Z",
  "devdoc": {
    "kind": "dev",
    "methods": {
      "createSale(uint256,uint256,uint256,uint256,address,address)": {
        "details": "  . "
      },
      "owner()": {
        "details": "Returns the address of the current owner."
      },
      "renounceOwnership()": {
        "details": "Leaves the contract without owner. It will not be possible to call `onlyOwner` functions anymore. Can only be called by the current owner. NOTE: Renouncing ownership will leave the contract without an owner, thereby removing any functionality that is only available to the owner."
      },
      "transferOwnership(address)": {
        "details": "Transfers ownership of the contract to a new account (`newOwner`). Can only be called by the current owner."
      }
    },
    "version": 1
  },
  "userdoc": {
    "kind": "user",
    "methods": {},
    "notice": "PJT  - Req.1-SC1 SaleFactory     ,      .",
    "version": 1
  }
}