{
  "contractName": "SaleFactory",
  "abi": [
    {
      "inputs": [],
      "stateMutability": "nonpayable",
      "type": "constructor"
    },
    {
      "anonymous": false,
      "inputs": [
        {
          "indexed": true,
          "internalType": "address",
          "name": "_saleContract",
          "type": "address"
        },
        {
          "indexed": true,
          "internalType": "address",
          "name": "_owner",
          "type": "address"
        },
        {
          "indexed": false,
          "internalType": "uint256",
          "name": "_workId",
          "type": "uint256"
        }
      ],
      "name": "NewSale",
      "type": "event"
    },
    {
      "anonymous": false,
      "inputs": [
        {
          "indexed": true,
          "internalType": "address",
          "name": "previousOwner",
          "type": "address"
        },
        {
          "indexed": true,
          "internalType": "address",
          "name": "newOwner",
          "type": "address"
        }
      ],
      "name": "OwnershipTransferred",
      "type": "event"
    },
    {
      "inputs": [],
      "name": "admin",
      "outputs": [
        {
          "internalType": "address",
          "name": "",
          "type": "address"
        }
      ],
      "stateMutability": "view",
      "type": "function",
      "constant": true
    },
    {
      "inputs": [],
      "name": "owner",
      "outputs": [
        {
          "internalType": "address",
          "name": "",
          "type": "address"
        }
      ],
      "stateMutability": "view",
      "type": "function",
      "constant": true
    },
    {
      "inputs": [],
      "name": "renounceOwnership",
      "outputs": [],
      "stateMutability": "nonpayable",
      "type": "function"
    },
    {
      "inputs": [
        {
          "internalType": "uint256",
          "name": "",
          "type": "uint256"
        }
      ],
      "name": "sales",
      "outputs": [
        {
          "internalType": "address",
          "name": "",
          "type": "address"
        }
      ],
      "stateMutability": "view",
      "type": "function",
      "constant": true
    },
    {
      "inputs": [
        {
          "internalType": "address",
          "name": "newOwner",
          "type": "address"
        }
      ],
      "name": "transferOwnership",
      "outputs": [],
      "stateMutability": "nonpayable",
      "type": "function"
    },
    {
      "inputs": [
        {
          "internalType": "uint256",
          "name": "itemId",
          "type": "uint256"
        },
        {
          "internalType": "uint256",
          "name": "purchasePrice",
          "type": "uint256"
        },
        {
          "internalType": "address",
          "name": "currencyAddress",
          "type": "address"
        },
        {
          "internalType": "address",
          "name": "nftAddress",
          "type": "address"
        }
      ],
      "name": "createSale",
      "outputs": [
        {
          "internalType": "address",
          "name": "",
          "type": "address"
        }
      ],
      "stateMutability": "nonpayable",
      "type": "function"
    },
    {
      "inputs": [],
      "name": "allSales",
      "outputs": [
        {
          "internalType": "address[]",
          "name": "",
          "type": "address[]"
        }
      ],
      "stateMutability": "view",
      "type": "function",
      "constant": true
    }
  ],
  "bytecode": "0x608060405234801561001057600080fd5b5061002d61002261007360201b60201c565b61007b60201b60201c565b33600160006101000a81548173ffffffffffffffffffffffffffffffffffffffff021916908373ffffffffffffffffffffffffffffffffffffffff16021790555061013f565b600033905090565b60008060009054906101000a900473ffffffffffffffffffffffffffffffffffffffff169050816000806101000a81548173ffffffffffffffffffffffffffffffffffffffff021916908373ffffffffffffffffffffffffffffffffffffffff1602179055508173ffffffffffffffffffffffffffffffffffffffff168173ffffffffffffffffffffffffffffffffffffffff167f8be0079c531659141344cd1fd0a4f28419497f9722a3daafe3b4186f6b6457e060405160405180910390a35050565b611f008061014e6000396000f3fe60806040523480156200001157600080fd5b5060043610620000885760003560e01c80638da5cb5b11620000635780638da5cb5b14620000f1578063b5f522f71462000113578063f2fde38b1462000149578063f851a44014620001695762000088565b80631df3574f146200008d5780636eafecba14620000c3578063715018a614620000e5575b600080fd5b620000ab6004803603810190620000a5919062000881565b6200018b565b604051620000ba919062000904565b60405180910390f35b620000cd6200044e565b604051620000dc9190620009ef565b60405180910390f35b620000ef620004de565b005b620000fb6200056f565b6040516200010a919062000904565b60405180910390f35b6200013160048036038101906200012b919062000a13565b62000598565b60405162000140919062000904565b60405180910390f35b62000167600480360381019062000161919062000a45565b620005d8565b005b62000173620006dc565b60405162000182919062000904565b60405180910390f35b600080600160009054906101000a900473ffffffffffffffffffffffffffffffffffffffff16600160009054906101000a900473ffffffffffffffffffffffffffffffffffffffff1687878787604051620001e690620007ce565b620001f79695949392919062000a88565b604051809103906000f08015801562000214573d6000803e3d6000fd5b5090508073ffffffffffffffffffffffffffffffffffffffff1663dbd0e1b66040518163ffffffff1660e01b8152600401602060405180830381865afa15801562000263573d6000803e3d6000fd5b505050506040513d601f19601f8201168201806040525081019062000289919062000b0c565b73ffffffffffffffffffffffffffffffffffffffff168173ffffffffffffffffffffffffffffffffffffffff166338cc48316040518163ffffffff1660e01b8152600401602060405180830381865afa158015620002eb573d6000803e3d6000fd5b505050506040513d601f19601f8201168201806040525081019062000311919062000b0c565b73ffffffffffffffffffffffffffffffffffffffff167f874bdb649427dfeceaa7f10beee59a823d3e45a6814f50bc18ba2adefd058e488373ffffffffffffffffffffffffffffffffffffffff1663e50590ae6040518163ffffffff1660e01b8152600401602060405180830381865afa15801562000394573d6000803e3d6000fd5b505050506040513d601f19601f82011682018060405250810190620003ba919062000b55565b604051620003c9919062000b87565b60405180910390a38073ffffffffffffffffffffffffffffffffffffffff166338cc48316040518163ffffffff1660e01b8152600401602060405180830381865afa1580156200041d573d6000803e3d6000fd5b505050506040513d601f19601f8201168201806040525081019062000443919062000b0c565b915050949350505050565b60606002805480602002602001604051908101604052809291908181526020018280548015620004d457602002820191906000526020600020905b8160009054906101000a900473ffffffffffffffffffffffffffffffffffffffff1673ffffffffffffffffffffffffffffffffffffffff168152602001906001019080831162000489575b5050505050905090565b620004e862000702565b73ffffffffffffffffffffffffffffffffffffffff16620005086200056f565b73ffffffffffffffffffffffffffffffffffffffff161462000561576040517f08c379a0000000000000000000000000000000000000000000000000000000008152600401620005589062000c05565b60405180910390fd5b6200056d60006200070a565b565b60008060009054906101000a900473ffffffffffffffffffffffffffffffffffffffff16905090565b60028181548110620005a957600080fd5b906000526020600020016000915054906101000a900473ffffffffffffffffffffffffffffffffffffffff1681565b620005e262000702565b73ffffffffffffffffffffffffffffffffffffffff16620006026200056f565b73ffffffffffffffffffffffffffffffffffffffff16146200065b576040517f08c379a0000000000000000000000000000000000000000000000000000000008152600401620006529062000c05565b60405180910390fd5b600073ffffffffffffffffffffffffffffffffffffffff168173ffffffffffffffffffffffffffffffffffffffff161415620006ce576040517f08c379a0000000000000000000000000000000000000000000000000000000008152600401620006c59062000c9d565b60405180910390fd5b620006d9816200070a565b50565b600160009054906101000a900473ffffffffffffffffffffffffffffffffffffffff1681565b600033905090565b60008060009054906101000a900473ffffffffffffffffffffffffffffffffffffffff169050816000806101000a81548173ffffffffffffffffffffffffffffffffffffffff021916908373ffffffffffffffffffffffffffffffffffffffff1602179055508173ffffffffffffffffffffffffffffffffffffffff168173ffffffffffffffffffffffffffffffffffffffff167f8be0079c531659141344cd1fd0a4f28419497f9722a3daafe3b4186f6b6457e060405160405180910390a35050565b61120b8062000cc083390190565b600080fd5b6000819050919050565b620007f681620007e1565b81146200080257600080fd5b50565b6000813590506200081681620007eb565b92915050565b600073ffffffffffffffffffffffffffffffffffffffff82169050919050565b600062000849826200081c565b9050919050565b6200085b816200083c565b81146200086757600080fd5b50565b6000813590506200087b8162000850565b92915050565b600080600080608085870312156200089e576200089d620007dc565b5b6000620008ae8782880162000805565b9450506020620008c18782880162000805565b9350506040620008d4878288016200086a565b9250506060620008e7878288016200086a565b91505092959194509250565b620008fe816200083c565b82525050565b60006020820190506200091b6000830184620008f3565b92915050565b600081519050919050565b600082825260208201905092915050565b6000819050602082019050919050565b62000958816200083c565b82525050565b60006200096c83836200094d565b60208301905092915050565b6000602082019050919050565b6000620009928262000921565b6200099e81856200092c565b9350620009ab836200093d565b8060005b83811015620009e2578151620009c688826200095e565b9750620009d38362000978565b925050600181019050620009af565b5085935050505092915050565b6000602082019050818103600083015262000a0b818462000985565b905092915050565b60006020828403121562000a2c5762000a2b620007dc565b5b600062000a3c8482850162000805565b91505092915050565b60006020828403121562000a5e5762000a5d620007dc565b5b600062000a6e848285016200086a565b91505092915050565b62000a8281620007e1565b82525050565b600060c08201905062000a9f6000830189620008f3565b62000aae6020830188620008f3565b62000abd604083018762000a77565b62000acc606083018662000a77565b62000adb6080830185620008f3565b62000aea60a0830184620008f3565b979650505050505050565b60008151905062000b068162000850565b92915050565b60006020828403121562000b255762000b24620007dc565b5b600062000b358482850162000af5565b91505092915050565b60008151905062000b4f81620007eb565b92915050565b60006020828403121562000b6e5762000b6d620007dc565b5b600062000b7e8482850162000b3e565b91505092915050565b600060208201905062000b9e600083018462000a77565b92915050565b600082825260208201905092915050565b7f4f776e61626c653a2063616c6c6572206973206e6f7420746865206f776e6572600082015250565b600062000bed60208362000ba4565b915062000bfa8262000bb5565b602082019050919050565b6000602082019050818103600083015262000c208162000bde565b9050919050565b7f4f776e61626c653a206e6577206f776e657220697320746865207a65726f206160008201527f6464726573730000000000000000000000000000000000000000000000000000602082015250565b600062000c8560268362000ba4565b915062000c928262000c27565b604082019050919050565b6000602082019050818103600083015262000cb88162000c76565b905091905056fe60806040523480156200001157600080fd5b506040516200120b3803806200120b8339818101604052810190620000379190620002a4565b600083116200004557600080fd5b8360048190555082600381905550846000806101000a81548173ffffffffffffffffffffffffffffffffffffffff021916908373ffffffffffffffffffffffffffffffffffffffff16021790555085600260006101000a81548173ffffffffffffffffffffffffffffffffffffffff021916908373ffffffffffffffffffffffffffffffffffffffff16021790555081600560006101000a81548173ffffffffffffffffffffffffffffffffffffffff021916908373ffffffffffffffffffffffffffffffffffffffff16021790555080600660006101000a81548173ffffffffffffffffffffffffffffffffffffffff021916908373ffffffffffffffffffffffffffffffffffffffff1602179055506000600660146101000a81548160ff02191690831515021790555081600960006101000a81548173ffffffffffffffffffffffffffffffffffffffff021916908373ffffffffffffffffffffffffffffffffffffffff16021790555080600a60006101000a81548173ffffffffffffffffffffffffffffffffffffffff021916908373ffffffffffffffffffffffffffffffffffffffff16021790555050505050505062000340565b600080fd5b600073ffffffffffffffffffffffffffffffffffffffff82169050919050565b6000620002318262000204565b9050919050565b620002438162000224565b81146200024f57600080fd5b50565b600081519050620002638162000238565b92915050565b6000819050919050565b6200027e8162000269565b81146200028a57600080fd5b50565b6000815190506200029e8162000273565b92915050565b60008060008060008060c08789031215620002c457620002c3620001ff565b5b6000620002d489828a0162000252565b9650506020620002e789828a0162000252565b9550506040620002fa89828a016200028d565b94505060606200030d89828a016200028d565b93505060806200032089828a0162000252565b92505060a06200033389828a0162000252565b9150509295509295509295565b610ebb80620003506000396000f3fe608060405234801561001057600080fd5b50600436106101215760003560e01c80637150d8ae116100ad578063db83694c11610071578063db83694c1461028c578063dbd0e1b6146102ad578063defd6c5f146102cb578063e50590ae146102e9578063ef0a230e1461030757610121565b80637150d8ae1461020a578063903e329c1461022857806391f9015714610232578063a8f6c91314610250578063d57bde791461026e57610121565b80631c1cb323116100f45780631c1cb3231461018a57806338cc4831146101a8578063454a2ab3146101c65780635bf8633a146101e257806364edfbf01461020057610121565b806308551a53146101265780630a7f463f1461014457806312fa6feb1461014e57806317d70f7c1461016c575b600080fd5b61012e610325565b60405161013b9190610b71565b60405180910390f35b61014c610349565b005b610156610448565b6040516101639190610ba7565b60405180910390f35b61017461045b565b6040516101819190610bdb565b60405180910390f35b610192610461565b60405161019f9190610b71565b60405180910390f35b6101b0610487565b6040516101bd9190610b71565b60405180910390f35b6101e060048036038101906101db9190610c27565b61048f565b005b6101ea6105eb565b6040516101f79190610b71565b60405180910390f35b610208610611565b005b610212610945565b60405161021f9190610b71565b60405180910390f35b61023061096b565b005b61023a610a1f565b6040516102479190610b71565b60405180910390f35b610258610a45565b6040516102659190610cb3565b60405180910390f35b610276610a6b565b6040516102839190610bdb565b60405180910390f35b610294610a71565b6040516102a49493929190610cce565b60405180910390f35b6102b5610ad1565b6040516102c29190610b71565b60405180910390f35b6102d3610afa565b6040516102e09190610bdb565b60405180910390f35b6102f1610b00565b6040516102fe9190610bdb565b60405180910390f35b61030f610b0a565b60405161031c9190610d34565b60405180910390f35b60008054906101000a900473ffffffffffffffffffffffffffffffffffffffff1681565b600760009054906101000a900473ffffffffffffffffffffffffffffffffffffffff1673ffffffffffffffffffffffffffffffffffffffff163373ffffffffffffffffffffffffffffffffffffffff16146103a357600080fd5b600960009054906101000a900473ffffffffffffffffffffffffffffffffffffffff1673ffffffffffffffffffffffffffffffffffffffff1663a9059cbb336003546040518363ffffffff1660e01b8152600401610402929190610d4f565b6020604051808303816000875af1158015610421573d6000803e3d6000fd5b505050506040513d601f19601f820116820180604052508101906104459190610da4565b50565b600660149054906101000a900460ff1681565b60045481565b600560009054906101000a900473ffffffffffffffffffffffffffffffffffffffff1681565b600030905090565b60008054906101000a900473ffffffffffffffffffffffffffffffffffffffff1673ffffffffffffffffffffffffffffffffffffffff163373ffffffffffffffffffffffffffffffffffffffff161461051d576040517f08c379a000000000000000000000000000000000000000000000000000000000815260040161051490610e2e565b60405180910390fd5b600960009054906101000a900473ffffffffffffffffffffffffffffffffffffffff1673ffffffffffffffffffffffffffffffffffffffff1663095ea7b3600160009054906101000a900473ffffffffffffffffffffffffffffffffffffffff16836040518363ffffffff1660e01b815260040161059c929190610d4f565b6020604051808303816000875af11580156105bb573d6000803e3d6000fd5b505050506040513d601f19601f820116820180604052508101906105df9190610da4565b6105e857600080fd5b50565b600660009054906101000a900473ffffffffffffffffffffffffffffffffffffffff1681565b60008054906101000a900473ffffffffffffffffffffffffffffffffffffffff1673ffffffffffffffffffffffffffffffffffffffff163373ffffffffffffffffffffffffffffffffffffffff161461069f576040517f08c379a000000000000000000000000000000000000000000000000000000000815260040161069690610e2e565b60405180910390fd5b600960009054906101000a900473ffffffffffffffffffffffffffffffffffffffff1673ffffffffffffffffffffffffffffffffffffffff1663095ea7b3336003546040518363ffffffff1660e01b81526004016106fe929190610d4f565b6020604051808303816000875af115801561071d573d6000803e3d6000fd5b505050506040513d601f19601f820116820180604052508101906107419190610da4565b61074a57600080fd5b600960009054906101000a900473ffffffffffffffffffffffffffffffffffffffff1673ffffffffffffffffffffffffffffffffffffffff1663a9059cbb336003546040518363ffffffff1660e01b81526004016107a9929190610d4f565b6020604051808303816000875af11580156107c8573d6000803e3d6000fd5b505050506040513d601f19601f820116820180604052508101906107ec9190610da4565b50600960009054906101000a900473ffffffffffffffffffffffffffffffffffffffff1673ffffffffffffffffffffffffffffffffffffffff1663095ea7b3336003546040518363ffffffff1660e01b815260040161084c929190610d4f565b6020604051808303816000875af115801561086b573d6000803e3d6000fd5b505050506040513d601f19601f8201168201806040525081019061088f9190610da4565b50600a60009054906101000a900473ffffffffffffffffffffffffffffffffffffffff1673ffffffffffffffffffffffffffffffffffffffff166323b872dd60008054906101000a900473ffffffffffffffffffffffffffffffffffffffff16336004546040518463ffffffff1660e01b815260040161091193929190610e4e565b600060405180830381600087803b15801561092b57600080fd5b505af115801561093f573d6000803e3d6000fd5b50505050565b600160009054906101000a900473ffffffffffffffffffffffffffffffffffffffff1681565b600260009054906101000a900473ffffffffffffffffffffffffffffffffffffffff1673ffffffffffffffffffffffffffffffffffffffff163373ffffffffffffffffffffffffffffffffffffffff16146109c557600080fd5b60008054906101000a900473ffffffffffffffffffffffffffffffffffffffff1673ffffffffffffffffffffffffffffffffffffffff163373ffffffffffffffffffffffffffffffffffffffff1614610a1d57600080fd5b565b600760009054906101000a900473ffffffffffffffffffffffffffffffffffffffff1681565b600960009054906101000a900473ffffffffffffffffffffffffffffffffffffffff1681565b60085481565b600080600080600354600454600560009054906101000a900473ffffffffffffffffffffffffffffffffffffffff16600660009054906101000a900473ffffffffffffffffffffffffffffffffffffffff16935093509350935090919293565b60008060009054906101000a900473ffffffffffffffffffffffffffffffffffffffff16905090565b60035481565b6000600454905090565b600a60009054906101000a900473ffffffffffffffffffffffffffffffffffffffff1681565b600073ffffffffffffffffffffffffffffffffffffffff82169050919050565b6000610b5b82610b30565b9050919050565b610b6b81610b50565b82525050565b6000602082019050610b866000830184610b62565b92915050565b60008115159050919050565b610ba181610b8c565b82525050565b6000602082019050610bbc6000830184610b98565b92915050565b6000819050919050565b610bd581610bc2565b82525050565b6000602082019050610bf06000830184610bcc565b92915050565b600080fd5b610c0481610bc2565b8114610c0f57600080fd5b50565b600081359050610c2181610bfb565b92915050565b600060208284031215610c3d57610c3c610bf6565b5b6000610c4b84828501610c12565b91505092915050565b6000819050919050565b6000610c79610c74610c6f84610b30565b610c54565b610b30565b9050919050565b6000610c8b82610c5e565b9050919050565b6000610c9d82610c80565b9050919050565b610cad81610c92565b82525050565b6000602082019050610cc86000830184610ca4565b92915050565b6000608082019050610ce36000830187610bcc565b610cf06020830186610bcc565b610cfd6040830185610b62565b610d0a6060830184610b62565b95945050505050565b6000610d1e82610c80565b9050919050565b610d2e81610d13565b82525050565b6000602082019050610d496000830184610d25565b92915050565b6000604082019050610d646000830185610b62565b610d716020830184610bcc565b9392505050565b610d8181610b8c565b8114610d8c57600080fd5b50565b600081519050610d9e81610d78565b92915050565b600060208284031215610dba57610db9610bf6565b5b6000610dc884828501610d8f565b91505092915050565b600082825260208201905092915050565b7f53616c653a20596f7520617265206e6f742073656c6c65722e00000000000000600082015250565b6000610e18601983610dd1565b9150610e2382610de2565b602082019050919050565b60006020820190508181036000830152610e4781610e0b565b9050919050565b6000606082019050610e636000830186610b62565b610e706020830185610b62565b610e7d6040830184610bcc565b94935050505056fea26469706673582212208bb3808e0de5892b2a18eb8c26b4a36c5856fa65066ef26b29899f28f28669ff64736f6c634300080a0033a26469706673582212205bf4aad661f510809d1d3369172dbc31d3104f54c7cc919d820cf45eecbdfe5364736f6c634300080a0033",
  "immutableReferences": {},
  "source": "// SPDX-License-Identifier: MIT\r\npragma solidity ^0.8.4;\r\n\r\nimport \"./access/Ownable.sol\";\r\nimport \"./token/ERC20/ERC20.sol\";\r\nimport \"./token/ERC721/ERC721.sol\";\r\nimport \"./SsafyNFT.sol\";\r\n\r\n/**\r\n * PJT  - Req.1-SC1 SaleFactory \r\n *    ,      .\r\n */\r\ncontract SaleFactory is Ownable {\r\n    address public admin;\r\n    address[] public sales;\r\n\r\n    event NewSale(\r\n        address indexed _saleContract,\r\n        address indexed _owner,\r\n        uint256 _workId\r\n    );\r\n\r\n    constructor() {\r\n        admin = msg.sender;\r\n    }\r\n\r\n    /**\r\n     * @dev   . \r\n     */\r\n    function createSale(\r\n        uint256 itemId,\r\n        uint256 purchasePrice,\r\n        // uint256 minPrice,\r\n        // uint256 startTime,\r\n        // uint256 endTime,\r\n        address currencyAddress,\r\n        address nftAddress\r\n    ) public returns (address) {\r\n        // TODO\r\n        Sale newContract = new Sale(admin, admin, itemId, purchasePrice, currencyAddress, nftAddress);\r\n        emit NewSale(newContract.getAddress(), newContract.getSeller(), newContract.gettokenId());\r\n        return newContract.getAddress();\r\n    }\r\n\r\n    function allSales() public view returns (address[] memory) {\r\n        return sales;\r\n    }\r\n}\r\n\r\n/**\r\n *  PJT  - Req.1-SC2) Sale \r\n */\r\ncontract Sale {\r\n    //    \r\n    address public seller;\r\n    address public buyer;\r\n    address admin;\r\n    // uint256 public saleStartTime;\r\n    // uint256 public saleEndTime;\r\n    // uint256 public minPrice;\r\n    uint256 public purchasePrice;\r\n    uint256 public tokenId;\r\n    address public currencyAddress;\r\n    address public nftAddress;\r\n    bool public ended;\r\n\r\n    //    \r\n    address public highestBidder;\r\n    uint256 public highestBid;\r\n\r\n    IERC20 public erc20Contract;\r\n    IERC721 public erc721Constract;\r\n\r\n    event HighestBidIncereased(address bidder, uint256 amount);\r\n    event SaleEnded(address winner, uint256 amount);\r\n\r\n    constructor(\r\n        address _admin,\r\n        address _seller,\r\n        uint256 _tokenId,\r\n        //uint256 _minPrice,\r\n        uint256 _purchasePrice,\r\n        // uint256 startTime,\r\n        // uint256 endTime,\r\n        address _currencyAddress,\r\n        address _nftAddress\r\n    ) {\r\n        require(_purchasePrice > 0); // _minPrice > 0\r\n        tokenId = _tokenId;\r\n        //minPrice = _minPrice;\r\n        purchasePrice = _purchasePrice;\r\n        seller = _seller;\r\n        admin = _admin;\r\n        // saleStartTime = startTime;\r\n        // saleEndTime = endTime;\r\n        currencyAddress = _currencyAddress;\r\n        nftAddress = _nftAddress;\r\n        ended = false;\r\n        erc20Contract = IERC20(_currencyAddress);\r\n        erc721Constract = IERC721(_nftAddress);\r\n    }\r\n\r\n    function bid(uint256 bid_amount) public onlySeller { //onlyAfterStart\r\n        // TODO\r\n        // int256 success = getTimeLeft();\r\n        // require(success > 0);\r\n        require(erc20Contract.approve(buyer, bid_amount));\r\n    }\r\n\r\n    function purchase() public onlySeller{ // onlyAfterStart\r\n        // TODO \r\n        // int256 success = getTimeLeft();\r\n        // require(success > 0);\r\n        require(erc20Contract.approve(msg.sender, purchasePrice));\r\n\r\n        erc20Contract.transfer(msg.sender, purchasePrice); //      \r\n        erc20Contract.approve(msg.sender, purchasePrice);\r\n        \r\n        erc721Constract.transferFrom(seller, msg.sender, tokenId); //erc721Constract // NFT  \r\n        //      \r\n    }\r\n\r\n    function confirmItem() public {\r\n        // TODO \r\n        // int256 success = getTimeLeft();\r\n        // require(success < 0);\r\n        require(msg.sender == highestBidder);\r\n        \r\n        erc20Contract.transfer(msg.sender,purchasePrice);\r\n        //erc721Constract // NFT  \r\n        //      \r\n    }\r\n    \r\n    function cancelSales() public view{\r\n        // TODO\r\n        // int256 success = getTimeLeft();\r\n        // require(success > 0);\r\n        require(msg.sender == admin);\r\n        require(msg.sender == seller);\r\n\r\n        //_burn // \r\n        // NFT \r\n        //    \r\n    }\r\n\r\n    function getAddress() public view returns (address){\r\n        return address(this);\r\n    }\r\n\r\n    function getSeller() public view returns (address){\r\n        return seller;\r\n    }\r\n\r\n    function gettokenId() public view returns (uint256){\r\n        return tokenId;\r\n    }\r\n\r\n    // function getTimeLeft() public view returns (int256) {\r\n    //     return (int256)(saleEndTime - block.timestamp);\r\n    // }\r\n\r\n    function getSaleInfo()\r\n        public\r\n        view\r\n        returns (\r\n            // uint256,\r\n            // uint256,\r\n            // uint256,\r\n            uint256,\r\n            uint256,\r\n            //address,\r\n            //uint256,\r\n            address,\r\n            address\r\n        )\r\n    {\r\n        return (\r\n            // saleStartTime,\r\n            // saleEndTime,\r\n            // minPrice,\r\n            purchasePrice,\r\n            tokenId,\r\n            //highestBidder,\r\n            //highestBid,\r\n            currencyAddress,\r\n            nftAddress\r\n        );\r\n    }\r\n\r\n    // function getHighestBid() public view returns(uint256){\r\n    //     return highestBid;\r\n    // }\r\n\r\n    // internal  private     _  .\r\n    function _end() internal {\r\n        ended = true;\r\n    }\r\n\r\n    function _getCurrencyAmount() private view returns (uint256) { \r\n        return erc20Contract.balanceOf(msg.sender); //     \r\n    }\r\n\r\n    // modifier       . \r\n    modifier onlySeller() {\r\n        require(msg.sender == seller, \"Sale: You are not seller.\"); \r\n        _;\r\n    }\r\n\r\n    // modifier onlyAfterStart() {\r\n    //     require(\r\n    //         block.timestamp >= saleStartTime,\r\n    //         \"Sale: This sale is not started.\"\r\n    //     );\r\n    //     _;\r\n    // }\r\n}\r\n",
  "sourcePath": "C:\\Users\\ssafy\\nft-sub2\\S06P22A107\\smart-contracts\\contracts\\SaleFactory.sol",
  "compiler": {
    "name": "solc",
    "version": "0.8.10+commit.fc410830.Emscripten.clang"
  },
  "schemaVersion": "3.4.5",
  "updatedAt": "2022-03-30T15:08:13.479Z",
  "networkType": "ethereum",
  "devdoc": {
    "kind": "dev",
    "methods": {
      "createSale(uint256,uint256,address,address)": {
        "details": "  . "
      },
      "owner()": {
        "details": "Returns the address of the current owner."
      },
      "renounceOwnership()": {
        "details": "Leaves the contract without owner. It will not be possible to call `onlyOwner` functions anymore. Can only be called by the current owner. NOTE: Renouncing ownership will leave the contract without an owner, thereby removing any functionality that is only available to the owner."
      },
      "transferOwnership(address)": {
        "details": "Transfers ownership of the contract to a new account (`newOwner`). Can only be called by the current owner."
      }
    },
    "version": 1
  },
  "userdoc": {
    "kind": "user",
    "methods": {},
    "notice": "PJT  - Req.1-SC1 SaleFactory     ,      .",
    "version": 1
  }
}