{
  "contractName": "SsafyNFT",
  "abi": [
    {
      "inputs": [],
      "stateMutability": "nonpayable",
      "type": "constructor"
    },
    {
      "anonymous": false,
      "inputs": [
        {
          "indexed": true,
          "internalType": "address",
          "name": "owner",
          "type": "address"
        },
        {
          "indexed": true,
          "internalType": "address",
          "name": "approved",
          "type": "address"
        },
        {
          "indexed": true,
          "internalType": "uint256",
          "name": "tokenId",
          "type": "uint256"
        }
      ],
      "name": "Approval",
      "type": "event"
    },
    {
      "anonymous": false,
      "inputs": [
        {
          "indexed": true,
          "internalType": "address",
          "name": "owner",
          "type": "address"
        },
        {
          "indexed": true,
          "internalType": "address",
          "name": "operator",
          "type": "address"
        },
        {
          "indexed": false,
          "internalType": "bool",
          "name": "approved",
          "type": "bool"
        }
      ],
      "name": "ApprovalForAll",
      "type": "event"
    },
    {
      "anonymous": false,
      "inputs": [
        {
          "indexed": true,
          "internalType": "address",
          "name": "from",
          "type": "address"
        },
        {
          "indexed": true,
          "internalType": "address",
          "name": "to",
          "type": "address"
        },
        {
          "indexed": true,
          "internalType": "uint256",
          "name": "tokenId",
          "type": "uint256"
        }
      ],
      "name": "Transfer",
      "type": "event"
    },
    {
      "inputs": [
        {
          "internalType": "address",
          "name": "to",
          "type": "address"
        },
        {
          "internalType": "uint256",
          "name": "tokenId",
          "type": "uint256"
        }
      ],
      "name": "approve",
      "outputs": [],
      "stateMutability": "nonpayable",
      "type": "function"
    },
    {
      "inputs": [
        {
          "internalType": "address",
          "name": "owner",
          "type": "address"
        }
      ],
      "name": "balanceOf",
      "outputs": [
        {
          "internalType": "uint256",
          "name": "",
          "type": "uint256"
        }
      ],
      "stateMutability": "view",
      "type": "function",
      "constant": true
    },
    {
      "inputs": [
        {
          "internalType": "uint256",
          "name": "tokenId",
          "type": "uint256"
        }
      ],
      "name": "getApproved",
      "outputs": [
        {
          "internalType": "address",
          "name": "",
          "type": "address"
        }
      ],
      "stateMutability": "view",
      "type": "function",
      "constant": true
    },
    {
      "inputs": [
        {
          "internalType": "address",
          "name": "owner",
          "type": "address"
        },
        {
          "internalType": "address",
          "name": "operator",
          "type": "address"
        }
      ],
      "name": "isApprovedForAll",
      "outputs": [
        {
          "internalType": "bool",
          "name": "",
          "type": "bool"
        }
      ],
      "stateMutability": "view",
      "type": "function",
      "constant": true
    },
    {
      "inputs": [],
      "name": "name",
      "outputs": [
        {
          "internalType": "string",
          "name": "",
          "type": "string"
        }
      ],
      "stateMutability": "view",
      "type": "function",
      "constant": true
    },
    {
      "inputs": [
        {
          "internalType": "uint256",
          "name": "tokenId",
          "type": "uint256"
        }
      ],
      "name": "ownerOf",
      "outputs": [
        {
          "internalType": "address",
          "name": "",
          "type": "address"
        }
      ],
      "stateMutability": "view",
      "type": "function",
      "constant": true
    },
    {
      "inputs": [
        {
          "internalType": "address",
          "name": "from",
          "type": "address"
        },
        {
          "internalType": "address",
          "name": "to",
          "type": "address"
        },
        {
          "internalType": "uint256",
          "name": "tokenId",
          "type": "uint256"
        }
      ],
      "name": "safeTransferFrom",
      "outputs": [],
      "stateMutability": "nonpayable",
      "type": "function"
    },
    {
      "inputs": [
        {
          "internalType": "address",
          "name": "from",
          "type": "address"
        },
        {
          "internalType": "address",
          "name": "to",
          "type": "address"
        },
        {
          "internalType": "uint256",
          "name": "tokenId",
          "type": "uint256"
        },
        {
          "internalType": "bytes",
          "name": "_data",
          "type": "bytes"
        }
      ],
      "name": "safeTransferFrom",
      "outputs": [],
      "stateMutability": "nonpayable",
      "type": "function"
    },
    {
      "inputs": [
        {
          "internalType": "address",
          "name": "operator",
          "type": "address"
        },
        {
          "internalType": "bool",
          "name": "approved",
          "type": "bool"
        }
      ],
      "name": "setApprovalForAll",
      "outputs": [],
      "stateMutability": "nonpayable",
      "type": "function"
    },
    {
      "inputs": [
        {
          "internalType": "bytes4",
          "name": "interfaceId",
          "type": "bytes4"
        }
      ],
      "name": "supportsInterface",
      "outputs": [
        {
          "internalType": "bool",
          "name": "",
          "type": "bool"
        }
      ],
      "stateMutability": "view",
      "type": "function",
      "constant": true
    },
    {
      "inputs": [],
      "name": "symbol",
      "outputs": [
        {
          "internalType": "string",
          "name": "",
          "type": "string"
        }
      ],
      "stateMutability": "view",
      "type": "function",
      "constant": true
    },
    {
      "inputs": [
        {
          "internalType": "address",
          "name": "from",
          "type": "address"
        },
        {
          "internalType": "address",
          "name": "to",
          "type": "address"
        },
        {
          "internalType": "uint256",
          "name": "tokenId",
          "type": "uint256"
        }
      ],
      "name": "transferFrom",
      "outputs": [],
      "stateMutability": "nonpayable",
      "type": "function"
    },
    {
      "inputs": [],
      "name": "current",
      "outputs": [
        {
          "internalType": "uint256",
          "name": "",
          "type": "uint256"
        }
      ],
      "stateMutability": "view",
      "type": "function",
      "constant": true
    },
    {
      "inputs": [
        {
          "internalType": "uint256",
          "name": "tokenId",
          "type": "uint256"
        }
      ],
      "name": "tokenURI",
      "outputs": [
        {
          "internalType": "string",
          "name": "",
          "type": "string"
        }
      ],
      "stateMutability": "view",
      "type": "function",
      "constant": true
    },
    {
      "inputs": [
        {
          "internalType": "address",
          "name": "to",
          "type": "address"
        },
        {
          "internalType": "string",
          "name": "_tokenURI",
          "type": "string"
        }
      ],
      "name": "create",
      "outputs": [
        {
          "internalType": "uint256",
          "name": "",
          "type": "uint256"
        }
      ],
      "stateMutability": "nonpayable",
      "type": "function"
    }
  ],
  "bytecode": "0x60806040523480156200001157600080fd5b506040518060400160405280600581526020017f5f6e616d650000000000000000000000000000000000000000000000000000008152506040518060400160405280600781526020017f5f73796d626f6c00000000000000000000000000000000000000000000000000815250816000908051906020019062000096929190620000b8565b508060019080519060200190620000af929190620000b8565b505050620001cd565b828054620000c69062000197565b90600052602060002090601f016020900481019282620000ea576000855562000136565b82601f106200010557805160ff191683800117855562000136565b8280016001018555821562000136579182015b828111156200013557825182559160200191906001019062000118565b5b50905062000145919062000149565b5090565b5b80821115620001645760008160009055506001016200014a565b5090565b7f4e487b7100000000000000000000000000000000000000000000000000000000600052602260045260246000fd5b60006002820490506001821680620001b057607f821691505b60208210811415620001c757620001c662000168565b5b50919050565b61258880620001dd6000396000f3fe608060405234801561001057600080fd5b50600436106100f55760003560e01c806370a0823111610097578063a22cb46511610066578063a22cb46514610298578063b88d4fde146102b4578063c87b56dd146102d0578063e985e9c514610300576100f5565b806370a08231146101fc57806395d89b411461022c5780639fa6a6e31461024a578063a15ab08d14610268576100f5565b8063095ea7b3116100d3578063095ea7b31461017857806323b872dd1461019457806342842e0e146101b05780636352211e146101cc576100f5565b806301ffc9a7146100fa57806306fdde031461012a578063081812fc14610148575b600080fd5b610114600480360381019061010f919061169b565b610330565b60405161012191906116e3565b60405180910390f35b610132610412565b60405161013f9190611797565b60405180910390f35b610162600480360381019061015d91906117ef565b6104a4565b60405161016f919061185d565b60405180910390f35b610192600480360381019061018d91906118a4565b6104e1565b005b6101ae60048036038101906101a991906118e4565b61068e565b005b6101ca60048036038101906101c591906118e4565b610761565b005b6101e660048036038101906101e191906117ef565b610781565b6040516101f3919061185d565b60405180910390f35b61021660048036038101906102119190611937565b610866565b6040516102239190611973565b60405180910390f35b61023461091e565b6040516102419190611797565b60405180910390f35b6102526109b0565b60405161025f9190611973565b60405180910390f35b610282600480360381019061027d9190611ac3565b6109ba565b60405161028f9190611973565b60405180910390f35b6102b260048036038101906102ad9190611b4b565b610a0f565b005b6102ce60048036038101906102c99190611c2c565b610b7b565b005b6102ea60048036038101906102e591906117ef565b610be3565b6040516102f79190611797565b60405180910390f35b61031a60048036038101906103159190611caf565b610c88565b60405161032791906116e3565b60405180910390f35b60007f80ac58cd000000000000000000000000000000000000000000000000000000007bffffffffffffffffffffffffffffffffffffffffffffffffffffffff1916827bffffffffffffffffffffffffffffffffffffffffffffffffffffffff191614806103fb57507f5b5e139f000000000000000000000000000000000000000000000000000000007bffffffffffffffffffffffffffffffffffffffffffffffffffffffff1916827bffffffffffffffffffffffffffffffffffffffffffffffffffffffff1916145b8061040b575061040a82610d1c565b5b9050919050565b60606000805461042190611d1e565b80601f016020809104026020016040519081016040528092919081815260200182805461044d90611d1e565b801561049a5780601f1061046f5761010080835404028352916020019161049a565b820191906000526020600020905b81548152906001019060200180831161047d57829003601f168201915b5050505050905090565b60006004600083815260200190815260200160002060009054906101000a900473ffffffffffffffffffffffffffffffffffffffff169050919050565b60006104ec82610781565b90508073ffffffffffffffffffffffffffffffffffffffff168373ffffffffffffffffffffffffffffffffffffffff16141561055d576040517f08c379a000000000000000000000000000000000000000000000000000000000815260040161055490611dc2565b60405180910390fd5b8073ffffffffffffffffffffffffffffffffffffffff163373ffffffffffffffffffffffffffffffffffffffff16148061059d575061059c8133610c88565b5b6105dc576040517f08c379a00000000000000000000000000000000000000000000000000000000081526004016105d390611e54565b60405180910390fd5b826004600084815260200190815260200160002060006101000a81548173ffffffffffffffffffffffffffffffffffffffff021916908373ffffffffffffffffffffffffffffffffffffffff160217905550818373ffffffffffffffffffffffffffffffffffffffff168273ffffffffffffffffffffffffffffffffffffffff167f8c5be1e5ebec7d5bd14f71427d1e84f3dd0314c0f7b2291e5b200ac8c7c3b92560405160405180910390a4505050565b61069781610781565b73ffffffffffffffffffffffffffffffffffffffff168373ffffffffffffffffffffffffffffffffffffffff16146106ce57600080fd5b600073ffffffffffffffffffffffffffffffffffffffff168273ffffffffffffffffffffffffffffffffffffffff16141561070857600080fd5b6107123382610d86565b610751576040517f08c379a000000000000000000000000000000000000000000000000000000000815260040161074890611ee6565b60405180910390fd5b61075c838383610e64565b505050565b61077c83838360405180602001604052806000815250610b7b565b505050565b6000806002600084815260200190815260200160002060009054906101000a900473ffffffffffffffffffffffffffffffffffffffff169050600073ffffffffffffffffffffffffffffffffffffffff168173ffffffffffffffffffffffffffffffffffffffff16141561082a576040517f08c379a000000000000000000000000000000000000000000000000000000000815260040161082190611f78565b60405180910390fd5b6002600084815260200190815260200160002060009054906101000a900473ffffffffffffffffffffffffffffffffffffffff16915050919050565b60008073ffffffffffffffffffffffffffffffffffffffff168273ffffffffffffffffffffffffffffffffffffffff1614156108d7576040517f08c379a00000000000000000000000000000000000000000000000000000000081526004016108ce9061200a565b60405180910390fd5b600360008373ffffffffffffffffffffffffffffffffffffffff1673ffffffffffffffffffffffffffffffffffffffff168152602001908152602001600020549050919050565b60606001805461092d90611d1e565b80601f016020809104026020016040519081016040528092919081815260200182805461095990611d1e565b80156109a65780601f1061097b576101008083540402835291602001916109a6565b820191906000526020600020905b81548152906001019060200180831161098957829003601f168201915b5050505050905090565b6000600654905090565b60008060016109c76109b0565b6109d19190612059565b90506109dd84826110cb565b82600760008381526020019081526020016000209080519060200190610a0492919061158c565b508091505092915050565b3373ffffffffffffffffffffffffffffffffffffffff168273ffffffffffffffffffffffffffffffffffffffff161415610a7e576040517f08c379a0000000000000000000000000000000000000000000000000000000008152600401610a75906120fb565b60405180910390fd5b80600560003373ffffffffffffffffffffffffffffffffffffffff1673ffffffffffffffffffffffffffffffffffffffff16815260200190815260200160002060008473ffffffffffffffffffffffffffffffffffffffff1673ffffffffffffffffffffffffffffffffffffffff16815260200190815260200160002060006101000a81548160ff0219169083151502179055508173ffffffffffffffffffffffffffffffffffffffff163373ffffffffffffffffffffffffffffffffffffffff167f17307eab39ab6107e8899845ad3d59bd9653f200f220920489ca2b5937696c3183604051610b6f91906116e3565b60405180910390a35050565b610b87848484846112a5565b610bc6576040517f08c379a0000000000000000000000000000000000000000000000000000000008152600401610bbd9061218d565b60405180910390fd5b610bd184848461068e565b610bdd848484846113e8565b50505050565b6060600760008381526020019081526020016000208054610c0390611d1e565b80601f0160208091040260200160405190810160405280929190818152602001828054610c2f90611d1e565b8015610c7c5780601f10610c5157610100808354040283529160200191610c7c565b820191906000526020600020905b815481529060010190602001808311610c5f57829003601f168201915b50505050509050919050565b6000600560008473ffffffffffffffffffffffffffffffffffffffff1673ffffffffffffffffffffffffffffffffffffffff16815260200190815260200160002060008373ffffffffffffffffffffffffffffffffffffffff1673ffffffffffffffffffffffffffffffffffffffff16815260200190815260200160002060009054906101000a900460ff16905092915050565b60007f01ffc9a7000000000000000000000000000000000000000000000000000000007bffffffffffffffffffffffffffffffffffffffffffffffffffffffff1916827bffffffffffffffffffffffffffffffffffffffffffffffffffffffff1916149050919050565b6000610d9182611444565b610dd0576040517f08c379a0000000000000000000000000000000000000000000000000000000008152600401610dc79061221f565b60405180910390fd5b6000610ddb83610781565b90508073ffffffffffffffffffffffffffffffffffffffff168473ffffffffffffffffffffffffffffffffffffffff161480610e4a57508373ffffffffffffffffffffffffffffffffffffffff16610e32846104a4565b73ffffffffffffffffffffffffffffffffffffffff16145b80610e5b5750610e5a8185610c88565b5b91505092915050565b8273ffffffffffffffffffffffffffffffffffffffff16610e8482610781565b73ffffffffffffffffffffffffffffffffffffffff1614610eda576040517f08c379a0000000000000000000000000000000000000000000000000000000008152600401610ed1906122b1565b60405180910390fd5b600073ffffffffffffffffffffffffffffffffffffffff168273ffffffffffffffffffffffffffffffffffffffff161415610f4a576040517f08c379a0000000000000000000000000000000000000000000000000000000008152600401610f4190612343565b60405180910390fd5b610f558383836114b6565b610f606000826114bb565b6001600360008573ffffffffffffffffffffffffffffffffffffffff1673ffffffffffffffffffffffffffffffffffffffff1681526020019081526020016000206000828254610fb09190612363565b925050819055506001600360008473ffffffffffffffffffffffffffffffffffffffff1673ffffffffffffffffffffffffffffffffffffffff16815260200190815260200160002060008282546110079190612059565b92505081905550816002600083815260200190815260200160002060006101000a81548173ffffffffffffffffffffffffffffffffffffffff021916908373ffffffffffffffffffffffffffffffffffffffff160217905550808273ffffffffffffffffffffffffffffffffffffffff168473ffffffffffffffffffffffffffffffffffffffff167fddf252ad1be2c89b69c2b068fc378daa952ba7f163c4a11628f55a4df523b3ef60405160405180910390a46110c6838383611574565b505050565b600073ffffffffffffffffffffffffffffffffffffffff168273ffffffffffffffffffffffffffffffffffffffff16141561113b576040517f08c379a0000000000000000000000000000000000000000000000000000000008152600401611132906123e3565b60405180910390fd5b61114481611444565b15611184576040517f08c379a000000000000000000000000000000000000000000000000000000000815260040161117b9061244f565b60405180910390fd5b611190600083836114b6565b816002600083815260200190815260200160002060006101000a81548173ffffffffffffffffffffffffffffffffffffffff021916908373ffffffffffffffffffffffffffffffffffffffff1602179055506001600360008473ffffffffffffffffffffffffffffffffffffffff1673ffffffffffffffffffffffffffffffffffffffff16815260200190815260200160002060008282546112329190612059565b92505081905550808273ffffffffffffffffffffffffffffffffffffffff16600073ffffffffffffffffffffffffffffffffffffffff167fddf252ad1be2c89b69c2b068fc378daa952ba7f163c4a11628f55a4df523b3ef60405160405180910390a46112a160008383611574565b5050565b60006112c68473ffffffffffffffffffffffffffffffffffffffff16611579565b1580156113005750600073ffffffffffffffffffffffffffffffffffffffff168473ffffffffffffffffffffffffffffffffffffffff1614155b1561130e57600190506113e0565b60008473ffffffffffffffffffffffffffffffffffffffff1663150b7a02338887876040518563ffffffff1660e01b815260040161134f94939291906124c4565b6020604051808303816000875af115801561136e573d6000803e3d6000fd5b505050506040513d601f19601f820116820180604052508101906113929190612525565b905063150b7a0260e01b7bffffffffffffffffffffffffffffffffffffffffffffffffffffffff1916817bffffffffffffffffffffffffffffffffffffffffffffffffffffffff1916149150505b949350505050565b6113f3848484610e64565b6113ff848484846112a5565b61143e576040517f08c379a00000000000000000000000000000000000000000000000000000000081526004016114359061218d565b60405180910390fd5b50505050565b6000806002600084815260200190815260200160002060009054906101000a900473ffffffffffffffffffffffffffffffffffffffff169050600073ffffffffffffffffffffffffffffffffffffffff168173ffffffffffffffffffffffffffffffffffffffff161415915050919050565b505050565b816004600083815260200190815260200160002060006101000a81548173ffffffffffffffffffffffffffffffffffffffff021916908373ffffffffffffffffffffffffffffffffffffffff160217905550808273ffffffffffffffffffffffffffffffffffffffff1661152e83610781565b73ffffffffffffffffffffffffffffffffffffffff167f8c5be1e5ebec7d5bd14f71427d1e84f3dd0314c0f7b2291e5b200ac8c7c3b92560405160405180910390a45050565b505050565b600080823b905060008111915050919050565b82805461159890611d1e565b90600052602060002090601f0160209004810192826115ba5760008555611601565b82601f106115d357805160ff1916838001178555611601565b82800160010185558215611601579182015b828111156116005782518255916020019190600101906115e5565b5b50905061160e9190611612565b5090565b5b8082111561162b576000816000905550600101611613565b5090565b6000604051905090565b600080fd5b600080fd5b60007fffffffff0000000000000000000000000000000000000000000000000000000082169050919050565b61167881611643565b811461168357600080fd5b50565b6000813590506116958161166f565b92915050565b6000602082840312156116b1576116b0611639565b5b60006116bf84828501611686565b91505092915050565b60008115159050919050565b6116dd816116c8565b82525050565b60006020820190506116f860008301846116d4565b92915050565b600081519050919050565b600082825260208201905092915050565b60005b8381101561173857808201518184015260208101905061171d565b83811115611747576000848401525b50505050565b6000601f19601f8301169050919050565b6000611769826116fe565b6117738185611709565b935061178381856020860161171a565b61178c8161174d565b840191505092915050565b600060208201905081810360008301526117b1818461175e565b905092915050565b6000819050919050565b6117cc816117b9565b81146117d757600080fd5b50565b6000813590506117e9816117c3565b92915050565b60006020828403121561180557611804611639565b5b6000611813848285016117da565b91505092915050565b600073ffffffffffffffffffffffffffffffffffffffff82169050919050565b60006118478261181c565b9050919050565b6118578161183c565b82525050565b6000602082019050611872600083018461184e565b92915050565b6118818161183c565b811461188c57600080fd5b50565b60008135905061189e81611878565b92915050565b600080604083850312156118bb576118ba611639565b5b60006118c98582860161188f565b92505060206118da858286016117da565b9150509250929050565b6000806000606084860312156118fd576118fc611639565b5b600061190b8682870161188f565b935050602061191c8682870161188f565b925050604061192d868287016117da565b9150509250925092565b60006020828403121561194d5761194c611639565b5b600061195b8482850161188f565b91505092915050565b61196d816117b9565b82525050565b60006020820190506119886000830184611964565b92915050565b600080fd5b600080fd5b7f4e487b7100000000000000000000000000000000000000000000000000000000600052604160045260246000fd5b6119d08261174d565b810181811067ffffffffffffffff821117156119ef576119ee611998565b5b80604052505050565b6000611a0261162f565b9050611a0e82826119c7565b919050565b600067ffffffffffffffff821115611a2e57611a2d611998565b5b611a378261174d565b9050602081019050919050565b82818337600083830152505050565b6000611a66611a6184611a13565b6119f8565b905082815260208101848484011115611a8257611a81611993565b5b611a8d848285611a44565b509392505050565b600082601f830112611aaa57611aa961198e565b5b8135611aba848260208601611a53565b91505092915050565b60008060408385031215611ada57611ad9611639565b5b6000611ae88582860161188f565b925050602083013567ffffffffffffffff811115611b0957611b0861163e565b5b611b1585828601611a95565b9150509250929050565b611b28816116c8565b8114611b3357600080fd5b50565b600081359050611b4581611b1f565b92915050565b60008060408385031215611b6257611b61611639565b5b6000611b708582860161188f565b9250506020611b8185828601611b36565b9150509250929050565b600067ffffffffffffffff821115611ba657611ba5611998565b5b611baf8261174d565b9050602081019050919050565b6000611bcf611bca84611b8b565b6119f8565b905082815260208101848484011115611beb57611bea611993565b5b611bf6848285611a44565b509392505050565b600082601f830112611c1357611c1261198e565b5b8135611c23848260208601611bbc565b91505092915050565b60008060008060808587031215611c4657611c45611639565b5b6000611c548782880161188f565b9450506020611c658782880161188f565b9350506040611c76878288016117da565b925050606085013567ffffffffffffffff811115611c9757611c9661163e565b5b611ca387828801611bfe565b91505092959194509250565b60008060408385031215611cc657611cc5611639565b5b6000611cd48582860161188f565b9250506020611ce58582860161188f565b9150509250929050565b7f4e487b7100000000000000000000000000000000000000000000000000000000600052602260045260246000fd5b60006002820490506001821680611d3657607f821691505b60208210811415611d4a57611d49611cef565b5b50919050565b7f4552433732313a20617070726f76616c20746f2063757272656e74206f776e6560008201527f7200000000000000000000000000000000000000000000000000000000000000602082015250565b6000611dac602183611709565b9150611db782611d50565b604082019050919050565b60006020820190508181036000830152611ddb81611d9f565b9050919050565b7f4552433732313a20617070726f76652063616c6c6572206973206e6f74206f7760008201527f6e6572206e6f7220617070726f76656420666f7220616c6c0000000000000000602082015250565b6000611e3e603883611709565b9150611e4982611de2565b604082019050919050565b60006020820190508181036000830152611e6d81611e31565b9050919050565b7f4552433732313a207472616e736665722063616c6c6572206973206e6f74206f60008201527f776e6572206e6f7220617070726f766564000000000000000000000000000000602082015250565b6000611ed0603183611709565b9150611edb82611e74565b604082019050919050565b60006020820190508181036000830152611eff81611ec3565b9050919050565b7f4552433732313a206f776e657220717565727920666f72206e6f6e657869737460008201527f656e7420746f6b656e0000000000000000000000000000000000000000000000602082015250565b6000611f62602983611709565b9150611f6d82611f06565b604082019050919050565b60006020820190508181036000830152611f9181611f55565b9050919050565b7f4552433732313a2062616c616e636520717565727920666f7220746865207a6560008201527f726f206164647265737300000000000000000000000000000000000000000000602082015250565b6000611ff4602a83611709565b9150611fff82611f98565b604082019050919050565b6000602082019050818103600083015261202381611fe7565b9050919050565b7f4e487b7100000000000000000000000000000000000000000000000000000000600052601160045260246000fd5b6000612064826117b9565b915061206f836117b9565b9250827fffffffffffffffffffffffffffffffffffffffffffffffffffffffffffffffff038211156120a4576120a361202a565b5b828201905092915050565b7f4552433732313a20617070726f766520746f2063616c6c657200000000000000600082015250565b60006120e5601983611709565b91506120f0826120af565b602082019050919050565b60006020820190508181036000830152612114816120d8565b9050919050565b7f4552433732313a207472616e7366657220746f206e6f6e20455243373231526560008201527f63656976657220696d706c656d656e7465720000000000000000000000000000602082015250565b6000612177603283611709565b91506121828261211b565b604082019050919050565b600060208201905081810360008301526121a68161216a565b9050919050565b7f4552433732313a206f70657261746f7220717565727920666f72206e6f6e657860008201527f697374656e7420746f6b656e0000000000000000000000000000000000000000602082015250565b6000612209602c83611709565b9150612214826121ad565b604082019050919050565b60006020820190508181036000830152612238816121fc565b9050919050565b7f4552433732313a207472616e736665722066726f6d20696e636f72726563742060008201527f6f776e6572000000000000000000000000000000000000000000000000000000602082015250565b600061229b602583611709565b91506122a68261223f565b604082019050919050565b600060208201905081810360008301526122ca8161228e565b9050919050565b7f4552433732313a207472616e7366657220746f20746865207a65726f2061646460008201527f7265737300000000000000000000000000000000000000000000000000000000602082015250565b600061232d602483611709565b9150612338826122d1565b604082019050919050565b6000602082019050818103600083015261235c81612320565b9050919050565b600061236e826117b9565b9150612379836117b9565b92508282101561238c5761238b61202a565b5b828203905092915050565b7f4552433732313a206d696e7420746f20746865207a65726f2061646472657373600082015250565b60006123cd602083611709565b91506123d882612397565b602082019050919050565b600060208201905081810360008301526123fc816123c0565b9050919050565b7f4552433732313a20746f6b656e20616c7265616479206d696e74656400000000600082015250565b6000612439601c83611709565b915061244482612403565b602082019050919050565b600060208201905081810360008301526124688161242c565b9050919050565b600081519050919050565b600082825260208201905092915050565b60006124968261246f565b6124a0818561247a565b93506124b081856020860161171a565b6124b98161174d565b840191505092915050565b60006080820190506124d9600083018761184e565b6124e6602083018661184e565b6124f36040830185611964565b8181036060830152612505818461248b565b905095945050505050565b60008151905061251f8161166f565b92915050565b60006020828403121561253b5761253a611639565b5b600061254984828501612510565b9150509291505056fea2646970667358221220f886187a97e43e271db0042add651d2fb0a8d4b37cc08864bb6c27e9dea6fca864736f6c634300080a0033",
  "immutableReferences": {},
  "source": "// SPDX-License-Identifier: MIT\r\npragma solidity ^0.8.4;\r\n\r\nimport \"./token/ERC721/ERC721.sol\";\r\n/**\r\n * PJT  -  2) NFT Creator \r\n *         .\r\n */\r\ncontract SsafyNFT is ERC721{\r\n\r\n    uint256 private _tokenIds; \r\n    mapping(uint256 => string) tokenURIs;\r\n    \r\n\r\n    constructor() ERC721(\"_name\",\"_symbol\"){\r\n        // TODO   \r\n    }\r\n\r\n    function current() public view returns (uint256) {\r\n        return _tokenIds;\r\n    }\r\n\r\n    function tokenURI(uint256 tokenId) public virtual override view returns (string memory) {\r\n        // TODO\r\n        return tokenURIs[tokenId];\r\n    }\r\n\r\n    function create(address to, string memory _tokenURI) public returns (uint256) {\r\n        // TODO\r\n        // tokenuri = _tokenURI;\r\n        // uint256 new_ids = current();\r\n        // _mint(to,new_ids);\r\n        // return new_ids;\r\n\r\n        uint256 new_ids = current()+1;\r\n        _mint(to,new_ids);\r\n        tokenURIs[new_ids] = _tokenURI;\r\n        return new_ids;\r\n    }\r\n}",
  "sourcePath": "C:\\Users\\root\\S06P22A107\\smart-contracts\\contracts\\SsafyNFT.sol",
  "compiler": {
    "name": "solc",
    "version": "0.8.10+commit.fc410830.Emscripten.clang"
  },
  "schemaVersion": "3.4.6",
  "updatedAt": "2022-03-23T02:29:00.273Z",
  "networkType": "ethereum",
  "devdoc": {
    "kind": "dev",
    "methods": {
      "approve(address,uint256)": {
        "details": "See {IERC721-approve}."
      },
      "balanceOf(address)": {
        "details": "See {IERC721-balanceOf}."
      },
      "getApproved(uint256)": {
        "details": "See {IERC721-getApproved}."
      },
      "isApprovedForAll(address,address)": {
        "details": "See {IERC721-isApprovedForAll}."
      },
      "name()": {
        "details": "See {IERC721Metadata-name}."
      },
      "ownerOf(uint256)": {
        "details": "See {IERC721-ownerOf}."
      },
      "safeTransferFrom(address,address,uint256)": {
        "details": "See {IERC721-safeTransferFrom}."
      },
      "safeTransferFrom(address,address,uint256,bytes)": {
        "details": "See {IERC721-safeTransferFrom}."
      },
      "setApprovalForAll(address,bool)": {
        "details": "See {IERC721-setApprovalForAll}."
      },
      "supportsInterface(bytes4)": {
        "details": "See {IERC165-supportsInterface}."
      },
      "symbol()": {
        "details": "See {IERC721Metadata-symbol}."
      },
      "tokenURI(uint256)": {
        "details": "See {IERC721Metadata-tokenURI}."
      },
      "transferFrom(address,address,uint256)": {
        "details": "See {IERC721-transferFrom}."
      }
    },
    "version": 1
  },
  "userdoc": {
    "kind": "user",
    "methods": {},
    "notice": "PJT  -  2) NFT Creator          .",
    "version": 1
  }
}