{
  "contractName": "SsafyNFT",
  "abi": [
    {
      "inputs": [],
      "stateMutability": "nonpayable",
      "type": "constructor"
    },
    {
      "anonymous": false,
      "inputs": [
        {
          "indexed": true,
          "internalType": "address",
          "name": "owner",
          "type": "address"
        },
        {
          "indexed": true,
          "internalType": "address",
          "name": "approved",
          "type": "address"
        },
        {
          "indexed": true,
          "internalType": "uint256",
          "name": "tokenId",
          "type": "uint256"
        }
      ],
      "name": "Approval",
      "type": "event"
    },
    {
      "anonymous": false,
      "inputs": [
        {
          "indexed": true,
          "internalType": "address",
          "name": "owner",
          "type": "address"
        },
        {
          "indexed": true,
          "internalType": "address",
          "name": "operator",
          "type": "address"
        },
        {
          "indexed": false,
          "internalType": "bool",
          "name": "approved",
          "type": "bool"
        }
      ],
      "name": "ApprovalForAll",
      "type": "event"
    },
    {
      "anonymous": false,
      "inputs": [
        {
          "indexed": true,
          "internalType": "address",
          "name": "from",
          "type": "address"
        },
        {
          "indexed": true,
          "internalType": "address",
          "name": "to",
          "type": "address"
        },
        {
          "indexed": true,
          "internalType": "uint256",
          "name": "tokenId",
          "type": "uint256"
        }
      ],
      "name": "Transfer",
      "type": "event"
    },
    {
      "inputs": [
        {
          "internalType": "address",
          "name": "to",
          "type": "address"
        },
        {
          "internalType": "uint256",
          "name": "tokenId",
          "type": "uint256"
        }
      ],
      "name": "approve",
      "outputs": [],
      "stateMutability": "nonpayable",
      "type": "function"
    },
    {
      "inputs": [
        {
          "internalType": "address",
          "name": "owner",
          "type": "address"
        }
      ],
      "name": "balanceOf",
      "outputs": [
        {
          "internalType": "uint256",
          "name": "",
          "type": "uint256"
        }
      ],
      "stateMutability": "view",
      "type": "function",
      "constant": true
    },
    {
      "inputs": [
        {
          "internalType": "uint256",
          "name": "tokenId",
          "type": "uint256"
        }
      ],
      "name": "getApproved",
      "outputs": [
        {
          "internalType": "address",
          "name": "",
          "type": "address"
        }
      ],
      "stateMutability": "view",
      "type": "function",
      "constant": true
    },
    {
      "inputs": [
        {
          "internalType": "address",
          "name": "owner",
          "type": "address"
        },
        {
          "internalType": "address",
          "name": "operator",
          "type": "address"
        }
      ],
      "name": "isApprovedForAll",
      "outputs": [
        {
          "internalType": "bool",
          "name": "",
          "type": "bool"
        }
      ],
      "stateMutability": "view",
      "type": "function",
      "constant": true
    },
    {
      "inputs": [],
      "name": "name",
      "outputs": [
        {
          "internalType": "string",
          "name": "",
          "type": "string"
        }
      ],
      "stateMutability": "view",
      "type": "function",
      "constant": true
    },
    {
      "inputs": [
        {
          "internalType": "uint256",
          "name": "tokenId",
          "type": "uint256"
        }
      ],
      "name": "ownerOf",
      "outputs": [
        {
          "internalType": "address",
          "name": "",
          "type": "address"
        }
      ],
      "stateMutability": "view",
      "type": "function",
      "constant": true
    },
    {
      "inputs": [
        {
          "internalType": "address",
          "name": "from",
          "type": "address"
        },
        {
          "internalType": "address",
          "name": "to",
          "type": "address"
        },
        {
          "internalType": "uint256",
          "name": "tokenId",
          "type": "uint256"
        }
      ],
      "name": "safeTransferFrom",
      "outputs": [],
      "stateMutability": "nonpayable",
      "type": "function"
    },
    {
      "inputs": [
        {
          "internalType": "address",
          "name": "from",
          "type": "address"
        },
        {
          "internalType": "address",
          "name": "to",
          "type": "address"
        },
        {
          "internalType": "uint256",
          "name": "tokenId",
          "type": "uint256"
        },
        {
          "internalType": "bytes",
          "name": "_data",
          "type": "bytes"
        }
      ],
      "name": "safeTransferFrom",
      "outputs": [],
      "stateMutability": "nonpayable",
      "type": "function"
    },
    {
      "inputs": [
        {
          "internalType": "address",
          "name": "operator",
          "type": "address"
        },
        {
          "internalType": "bool",
          "name": "approved",
          "type": "bool"
        }
      ],
      "name": "setApprovalForAll",
      "outputs": [],
      "stateMutability": "nonpayable",
      "type": "function"
    },
    {
      "inputs": [
        {
          "internalType": "bytes4",
          "name": "interfaceId",
          "type": "bytes4"
        }
      ],
      "name": "supportsInterface",
      "outputs": [
        {
          "internalType": "bool",
          "name": "",
          "type": "bool"
        }
      ],
      "stateMutability": "view",
      "type": "function",
      "constant": true
    },
    {
      "inputs": [],
      "name": "symbol",
      "outputs": [
        {
          "internalType": "string",
          "name": "",
          "type": "string"
        }
      ],
      "stateMutability": "view",
      "type": "function",
      "constant": true
    },
    {
      "inputs": [
        {
          "internalType": "address",
          "name": "from",
          "type": "address"
        },
        {
          "internalType": "address",
          "name": "to",
          "type": "address"
        },
        {
          "internalType": "uint256",
          "name": "tokenId",
          "type": "uint256"
        }
      ],
      "name": "transferFrom",
      "outputs": [],
      "stateMutability": "nonpayable",
      "type": "function"
    },
    {
      "inputs": [],
      "name": "current",
      "outputs": [
        {
          "internalType": "uint256",
          "name": "",
          "type": "uint256"
        }
      ],
      "stateMutability": "view",
      "type": "function",
      "constant": true
    },
    {
      "inputs": [
        {
          "internalType": "uint256",
          "name": "tokenId",
          "type": "uint256"
        }
      ],
      "name": "tokenURI",
      "outputs": [
        {
          "internalType": "string",
          "name": "",
          "type": "string"
        }
      ],
      "stateMutability": "view",
      "type": "function",
      "constant": true
    },
    {
      "inputs": [
        {
          "internalType": "address",
          "name": "to",
          "type": "address"
        },
        {
          "internalType": "string",
          "name": "_tokenURI",
          "type": "string"
        }
      ],
      "name": "create",
      "outputs": [
        {
          "internalType": "uint256",
          "name": "",
          "type": "uint256"
        }
      ],
      "stateMutability": "nonpayable",
      "type": "function"
    }
  ],
  "bytecode": "0x60806040523480156200001157600080fd5b506040518060400160405280600581526020017f5f6e616d650000000000000000000000000000000000000000000000000000008152506040518060400160405280600781526020017f5f73796d626f6c00000000000000000000000000000000000000000000000000815250816000908051906020019062000096929190620000b8565b508060019080519060200190620000af929190620000b8565b505050620001cd565b828054620000c69062000197565b90600052602060002090601f016020900481019282620000ea576000855562000136565b82601f106200010557805160ff191683800117855562000136565b8280016001018555821562000136579182015b828111156200013557825182559160200191906001019062000118565b5b50905062000145919062000149565b5090565b5b80821115620001645760008160009055506001016200014a565b5090565b7f4e487b7100000000000000000000000000000000000000000000000000000000600052602260045260246000fd5b60006002820490506001821680620001b057607f821691505b60208210811415620001c757620001c662000168565b5b50919050565b61207b80620001dd6000396000f3fe608060405234801561001057600080fd5b50600436106100f55760003560e01c806370a0823111610097578063a22cb46511610066578063a22cb46514610298578063b88d4fde146102b4578063c87b56dd146102d0578063e985e9c514610300576100f5565b806370a08231146101fc57806395d89b411461022c5780639fa6a6e31461024a578063a15ab08d14610268576100f5565b8063095ea7b3116100d3578063095ea7b31461017857806323b872dd1461019457806342842e0e146101b05780636352211e146101cc576100f5565b806301ffc9a7146100fa57806306fdde031461012a578063081812fc14610148575b600080fd5b610114600480360381019061010f91906112e6565b610330565b604051610121919061132e565b60405180910390f35b610132610412565b60405161013f91906113e2565b60405180910390f35b610162600480360381019061015d919061143a565b6104a4565b60405161016f91906114a8565b60405180910390f35b610192600480360381019061018d91906114ef565b6104e1565b005b6101ae60048036038101906101a9919061152f565b61068e565b005b6101ca60048036038101906101c5919061152f565b610756565b005b6101e660048036038101906101e1919061143a565b610776565b6040516101f391906114a8565b60405180910390f35b61021660048036038101906102119190611582565b61085b565b60405161022391906115be565b60405180910390f35b610234610913565b60405161024191906113e2565b60405180910390f35b6102526109a5565b60405161025f91906115be565b60405180910390f35b610282600480360381019061027d919061170e565b6109af565b60405161028f91906115be565b60405180910390f35b6102b260048036038101906102ad9190611796565b610a04565b005b6102ce60048036038101906102c99190611877565b610b70565b005b6102ea60048036038101906102e5919061143a565b610bcc565b6040516102f791906113e2565b60405180910390f35b61031a600480360381019061031591906118fa565b610c71565b604051610327919061132e565b60405180910390f35b60007f80ac58cd000000000000000000000000000000000000000000000000000000007bffffffffffffffffffffffffffffffffffffffffffffffffffffffff1916827bffffffffffffffffffffffffffffffffffffffffffffffffffffffff191614806103fb57507f5b5e139f000000000000000000000000000000000000000000000000000000007bffffffffffffffffffffffffffffffffffffffffffffffffffffffff1916827bffffffffffffffffffffffffffffffffffffffffffffffffffffffff1916145b8061040b575061040a82610d05565b5b9050919050565b60606000805461042190611969565b80601f016020809104026020016040519081016040528092919081815260200182805461044d90611969565b801561049a5780601f1061046f5761010080835404028352916020019161049a565b820191906000526020600020905b81548152906001019060200180831161047d57829003601f168201915b5050505050905090565b60006004600083815260200190815260200160002060009054906101000a900473ffffffffffffffffffffffffffffffffffffffff169050919050565b60006104ec82610776565b90508073ffffffffffffffffffffffffffffffffffffffff168373ffffffffffffffffffffffffffffffffffffffff16141561055d576040517f08c379a000000000000000000000000000000000000000000000000000000000815260040161055490611a0d565b60405180910390fd5b8073ffffffffffffffffffffffffffffffffffffffff163373ffffffffffffffffffffffffffffffffffffffff16148061059d575061059c8133610c71565b5b6105dc576040517f08c379a00000000000000000000000000000000000000000000000000000000081526004016105d390611a9f565b60405180910390fd5b826004600084815260200190815260200160002060006101000a81548173ffffffffffffffffffffffffffffffffffffffff021916908373ffffffffffffffffffffffffffffffffffffffff160217905550818373ffffffffffffffffffffffffffffffffffffffff168273ffffffffffffffffffffffffffffffffffffffff167f8c5be1e5ebec7d5bd14f71427d1e84f3dd0314c0f7b2291e5b200ac8c7c3b92560405160405180910390a4505050565b61069781610776565b73ffffffffffffffffffffffffffffffffffffffff168373ffffffffffffffffffffffffffffffffffffffff16146106ce57600080fd5b600073ffffffffffffffffffffffffffffffffffffffff168273ffffffffffffffffffffffffffffffffffffffff16141561070857600080fd5b6107123382610d6f565b610751576040517f08c379a000000000000000000000000000000000000000000000000000000000815260040161074890611b31565b60405180910390fd5b505050565b61077183838360405180602001604052806000815250610b70565b505050565b6000806002600084815260200190815260200160002060009054906101000a900473ffffffffffffffffffffffffffffffffffffffff169050600073ffffffffffffffffffffffffffffffffffffffff168173ffffffffffffffffffffffffffffffffffffffff16141561081f576040517f08c379a000000000000000000000000000000000000000000000000000000000815260040161081690611bc3565b60405180910390fd5b6002600084815260200190815260200160002060009054906101000a900473ffffffffffffffffffffffffffffffffffffffff16915050919050565b60008073ffffffffffffffffffffffffffffffffffffffff168273ffffffffffffffffffffffffffffffffffffffff1614156108cc576040517f08c379a00000000000000000000000000000000000000000000000000000000081526004016108c390611c55565b60405180910390fd5b600360008373ffffffffffffffffffffffffffffffffffffffff1673ffffffffffffffffffffffffffffffffffffffff168152602001908152602001600020549050919050565b60606001805461092290611969565b80601f016020809104026020016040519081016040528092919081815260200182805461094e90611969565b801561099b5780601f106109705761010080835404028352916020019161099b565b820191906000526020600020905b81548152906001019060200180831161097e57829003601f168201915b5050505050905090565b6000600654905090565b60008060016109bc6109a5565b6109c69190611ca4565b9050826007600083815260200190815260200160002090805190602001906109ef9291906111d7565b506109fa8482610e4d565b8091505092915050565b3373ffffffffffffffffffffffffffffffffffffffff168273ffffffffffffffffffffffffffffffffffffffff161415610a73576040517f08c379a0000000000000000000000000000000000000000000000000000000008152600401610a6a90611d46565b60405180910390fd5b80600560003373ffffffffffffffffffffffffffffffffffffffff1673ffffffffffffffffffffffffffffffffffffffff16815260200190815260200160002060008473ffffffffffffffffffffffffffffffffffffffff1673ffffffffffffffffffffffffffffffffffffffff16815260200190815260200160002060006101000a81548160ff0219169083151502179055508173ffffffffffffffffffffffffffffffffffffffff163373ffffffffffffffffffffffffffffffffffffffff167f17307eab39ab6107e8899845ad3d59bd9653f200f220920489ca2b5937696c3183604051610b64919061132e565b60405180910390a35050565b610b7c8484848461100f565b610bbb576040517f08c379a0000000000000000000000000000000000000000000000000000000008152600401610bb290611dd8565b60405180910390fd5b610bc684848461068e565b50505050565b6060600760008381526020019081526020016000208054610bec90611969565b80601f0160208091040260200160405190810160405280929190818152602001828054610c1890611969565b8015610c655780601f10610c3a57610100808354040283529160200191610c65565b820191906000526020600020905b815481529060010190602001808311610c4857829003601f168201915b50505050509050919050565b6000600560008473ffffffffffffffffffffffffffffffffffffffff1673ffffffffffffffffffffffffffffffffffffffff16815260200190815260200160002060008373ffffffffffffffffffffffffffffffffffffffff1673ffffffffffffffffffffffffffffffffffffffff16815260200190815260200160002060009054906101000a900460ff16905092915050565b60007f01ffc9a7000000000000000000000000000000000000000000000000000000007bffffffffffffffffffffffffffffffffffffffffffffffffffffffff1916827bffffffffffffffffffffffffffffffffffffffffffffffffffffffff1916149050919050565b6000610d7a82611152565b610db9576040517f08c379a0000000000000000000000000000000000000000000000000000000008152600401610db090611e6a565b60405180910390fd5b6000610dc483610776565b90508073ffffffffffffffffffffffffffffffffffffffff168473ffffffffffffffffffffffffffffffffffffffff161480610e3357508373ffffffffffffffffffffffffffffffffffffffff16610e1b846104a4565b73ffffffffffffffffffffffffffffffffffffffff16145b80610e445750610e438185610c71565b5b91505092915050565b600073ffffffffffffffffffffffffffffffffffffffff168273ffffffffffffffffffffffffffffffffffffffff161415610ebd576040517f08c379a0000000000000000000000000000000000000000000000000000000008152600401610eb490611ed6565b60405180910390fd5b610ec681611152565b15610f06576040517f08c379a0000000000000000000000000000000000000000000000000000000008152600401610efd90611f42565b60405180910390fd5b816002600083815260200190815260200160002060006101000a81548173ffffffffffffffffffffffffffffffffffffffff021916908373ffffffffffffffffffffffffffffffffffffffff1602179055506001600360008473ffffffffffffffffffffffffffffffffffffffff1673ffffffffffffffffffffffffffffffffffffffff1681526020019081526020016000206000828254610fa89190611ca4565b92505081905550808273ffffffffffffffffffffffffffffffffffffffff16600073ffffffffffffffffffffffffffffffffffffffff167fddf252ad1be2c89b69c2b068fc378daa952ba7f163c4a11628f55a4df523b3ef60405160405180910390a45050565b60006110308473ffffffffffffffffffffffffffffffffffffffff166111c4565b15801561106a5750600073ffffffffffffffffffffffffffffffffffffffff168473ffffffffffffffffffffffffffffffffffffffff1614155b15611078576001905061114a565b60008473ffffffffffffffffffffffffffffffffffffffff1663150b7a02338887876040518563ffffffff1660e01b81526004016110b99493929190611fb7565b6020604051808303816000875af11580156110d8573d6000803e3d6000fd5b505050506040513d601f19601f820116820180604052508101906110fc9190612018565b905063150b7a0260e01b7bffffffffffffffffffffffffffffffffffffffffffffffffffffffff1916817bffffffffffffffffffffffffffffffffffffffffffffffffffffffff1916149150505b949350505050565b6000806002600084815260200190815260200160002060009054906101000a900473ffffffffffffffffffffffffffffffffffffffff169050600073ffffffffffffffffffffffffffffffffffffffff168173ffffffffffffffffffffffffffffffffffffffff161415915050919050565b600080823b905060008111915050919050565b8280546111e390611969565b90600052602060002090601f016020900481019282611205576000855561124c565b82601f1061121e57805160ff191683800117855561124c565b8280016001018555821561124c579182015b8281111561124b578251825591602001919060010190611230565b5b509050611259919061125d565b5090565b5b8082111561127657600081600090555060010161125e565b5090565b6000604051905090565b600080fd5b600080fd5b60007fffffffff0000000000000000000000000000000000000000000000000000000082169050919050565b6112c38161128e565b81146112ce57600080fd5b50565b6000813590506112e0816112ba565b92915050565b6000602082840312156112fc576112fb611284565b5b600061130a848285016112d1565b91505092915050565b60008115159050919050565b61132881611313565b82525050565b6000602082019050611343600083018461131f565b92915050565b600081519050919050565b600082825260208201905092915050565b60005b83811015611383578082015181840152602081019050611368565b83811115611392576000848401525b50505050565b6000601f19601f8301169050919050565b60006113b482611349565b6113be8185611354565b93506113ce818560208601611365565b6113d781611398565b840191505092915050565b600060208201905081810360008301526113fc81846113a9565b905092915050565b6000819050919050565b61141781611404565b811461142257600080fd5b50565b6000813590506114348161140e565b92915050565b6000602082840312156114505761144f611284565b5b600061145e84828501611425565b91505092915050565b600073ffffffffffffffffffffffffffffffffffffffff82169050919050565b600061149282611467565b9050919050565b6114a281611487565b82525050565b60006020820190506114bd6000830184611499565b92915050565b6114cc81611487565b81146114d757600080fd5b50565b6000813590506114e9816114c3565b92915050565b6000806040838503121561150657611505611284565b5b6000611514858286016114da565b925050602061152585828601611425565b9150509250929050565b60008060006060848603121561154857611547611284565b5b6000611556868287016114da565b9350506020611567868287016114da565b925050604061157886828701611425565b9150509250925092565b60006020828403121561159857611597611284565b5b60006115a6848285016114da565b91505092915050565b6115b881611404565b82525050565b60006020820190506115d360008301846115af565b92915050565b600080fd5b600080fd5b7f4e487b7100000000000000000000000000000000000000000000000000000000600052604160045260246000fd5b61161b82611398565b810181811067ffffffffffffffff8211171561163a576116396115e3565b5b80604052505050565b600061164d61127a565b90506116598282611612565b919050565b600067ffffffffffffffff821115611679576116786115e3565b5b61168282611398565b9050602081019050919050565b82818337600083830152505050565b60006116b16116ac8461165e565b611643565b9050828152602081018484840111156116cd576116cc6115de565b5b6116d884828561168f565b509392505050565b600082601f8301126116f5576116f46115d9565b5b813561170584826020860161169e565b91505092915050565b6000806040838503121561172557611724611284565b5b6000611733858286016114da565b925050602083013567ffffffffffffffff81111561175457611753611289565b5b611760858286016116e0565b9150509250929050565b61177381611313565b811461177e57600080fd5b50565b6000813590506117908161176a565b92915050565b600080604083850312156117ad576117ac611284565b5b60006117bb858286016114da565b92505060206117cc85828601611781565b9150509250929050565b600067ffffffffffffffff8211156117f1576117f06115e3565b5b6117fa82611398565b9050602081019050919050565b600061181a611815846117d6565b611643565b905082815260208101848484011115611836576118356115de565b5b61184184828561168f565b509392505050565b600082601f83011261185e5761185d6115d9565b5b813561186e848260208601611807565b91505092915050565b6000806000806080858703121561189157611890611284565b5b600061189f878288016114da565b94505060206118b0878288016114da565b93505060406118c187828801611425565b925050606085013567ffffffffffffffff8111156118e2576118e1611289565b5b6118ee87828801611849565b91505092959194509250565b6000806040838503121561191157611910611284565b5b600061191f858286016114da565b9250506020611930858286016114da565b9150509250929050565b7f4e487b7100000000000000000000000000000000000000000000000000000000600052602260045260246000fd5b6000600282049050600182168061198157607f821691505b602082108114156119955761199461193a565b5b50919050565b7f4552433732313a20617070726f76616c20746f2063757272656e74206f776e6560008201527f7200000000000000000000000000000000000000000000000000000000000000602082015250565b60006119f7602183611354565b9150611a028261199b565b604082019050919050565b60006020820190508181036000830152611a26816119ea565b9050919050565b7f4552433732313a20617070726f76652063616c6c6572206973206e6f74206f7760008201527f6e6572206e6f7220617070726f76656420666f7220616c6c0000000000000000602082015250565b6000611a89603883611354565b9150611a9482611a2d565b604082019050919050565b60006020820190508181036000830152611ab881611a7c565b9050919050565b7f4552433732313a207472616e736665722063616c6c6572206973206e6f74206f60008201527f776e6572206e6f7220617070726f766564000000000000000000000000000000602082015250565b6000611b1b603183611354565b9150611b2682611abf565b604082019050919050565b60006020820190508181036000830152611b4a81611b0e565b9050919050565b7f4552433732313a206f776e657220717565727920666f72206e6f6e657869737460008201527f656e7420746f6b656e0000000000000000000000000000000000000000000000602082015250565b6000611bad602983611354565b9150611bb882611b51565b604082019050919050565b60006020820190508181036000830152611bdc81611ba0565b9050919050565b7f4552433732313a2062616c616e636520717565727920666f7220746865207a6560008201527f726f206164647265737300000000000000000000000000000000000000000000602082015250565b6000611c3f602a83611354565b9150611c4a82611be3565b604082019050919050565b60006020820190508181036000830152611c6e81611c32565b9050919050565b7f4e487b7100000000000000000000000000000000000000000000000000000000600052601160045260246000fd5b6000611caf82611404565b9150611cba83611404565b9250827fffffffffffffffffffffffffffffffffffffffffffffffffffffffffffffffff03821115611cef57611cee611c75565b5b828201905092915050565b7f4552433732313a20617070726f766520746f2063616c6c657200000000000000600082015250565b6000611d30601983611354565b9150611d3b82611cfa565b602082019050919050565b60006020820190508181036000830152611d5f81611d23565b9050919050565b7f4552433732313a207472616e7366657220746f206e6f6e20455243373231526560008201527f63656976657220696d706c656d656e7465720000000000000000000000000000602082015250565b6000611dc2603283611354565b9150611dcd82611d66565b604082019050919050565b60006020820190508181036000830152611df181611db5565b9050919050565b7f4552433732313a206f70657261746f7220717565727920666f72206e6f6e657860008201527f697374656e7420746f6b656e0000000000000000000000000000000000000000602082015250565b6000611e54602c83611354565b9150611e5f82611df8565b604082019050919050565b60006020820190508181036000830152611e8381611e47565b9050919050565b7f4552433732313a206d696e7420746f20746865207a65726f2061646472657373600082015250565b6000611ec0602083611354565b9150611ecb82611e8a565b602082019050919050565b60006020820190508181036000830152611eef81611eb3565b9050919050565b7f4552433732313a20746f6b656e20616c7265616479206d696e74656400000000600082015250565b6000611f2c601c83611354565b9150611f3782611ef6565b602082019050919050565b60006020820190508181036000830152611f5b81611f1f565b9050919050565b600081519050919050565b600082825260208201905092915050565b6000611f8982611f62565b611f938185611f6d565b9350611fa3818560208601611365565b611fac81611398565b840191505092915050565b6000608082019050611fcc6000830187611499565b611fd96020830186611499565b611fe660408301856115af565b8181036060830152611ff88184611f7e565b905095945050505050565b600081519050612012816112ba565b92915050565b60006020828403121561202e5761202d611284565b5b600061203c84828501612003565b9150509291505056fea2646970667358221220ac1785a9f930134675ff3720abe48b1cf9386114914a2db3fdd58fbc70306c6464736f6c634300080a0033",
  "immutableReferences": {},
  "source": "// SPDX-License-Identifier: MIT\r\npragma solidity ^0.8.4;\r\n\r\nimport \"./token/ERC721/ERC721.sol\";\r\n\r\n/**\r\n * PJT  -  2) NFT Creator \r\n *         .\r\n */\r\ncontract SsafyNFT is ERC721{\r\n\r\n    uint256 private _tokenIds;\r\n    mapping(uint256 => string) tokenURIs;\r\n    \r\n\r\n    constructor() ERC721(\"_name\",\"_symbol\"){\r\n        // TODO   \r\n    }\r\n\r\n    function current() public view returns (uint256) {\r\n        return _tokenIds;\r\n    }\r\n\r\n    function tokenURI(uint256 tokenId) public virtual override view returns (string memory) {\r\n        // TODO\r\n        return tokenURIs[tokenId];\r\n    }\r\n\r\n    function create(address to, string memory _tokenURI) public returns (uint256) {\r\n        // TODO\r\n        // tokenuri = _tokenURI;\r\n        // uint256 new_ids = current();\r\n        // _mint(to,new_ids);\r\n        // return new_ids;\r\n        uint256 new_ids = current()+1;\r\n        tokenURIs[new_ids] = _tokenURI;\r\n        _mint(to,new_ids);\r\n        return new_ids;\r\n    }\r\n}",
  "sourcePath": "C:\\Users\\ssafy\\nft-sub2\\S06P22A107\\smart-contracts\\contracts\\SsafyNFT.sol",
  "compiler": {
    "name": "solc",
    "version": "0.8.10+commit.fc410830.Emscripten.clang"
  },
  "schemaVersion": "3.4.5",
  "updatedAt": "2022-03-13T16:07:21.239Z",
  "networkType": "ethereum",
  "devdoc": {
    "kind": "dev",
    "methods": {
      "approve(address,uint256)": {
        "details": "See {IERC721-approve}."
      },
      "balanceOf(address)": {
        "details": "See {IERC721-balanceOf}."
      },
      "getApproved(uint256)": {
        "details": "See {IERC721-getApproved}."
      },
      "isApprovedForAll(address,address)": {
        "details": "See {IERC721-isApprovedForAll}."
      },
      "name()": {
        "details": "See {IERC721Metadata-name}."
      },
      "ownerOf(uint256)": {
        "details": "See {IERC721-ownerOf}."
      },
      "safeTransferFrom(address,address,uint256)": {
        "details": "See {IERC721-safeTransferFrom}."
      },
      "safeTransferFrom(address,address,uint256,bytes)": {
        "details": "See {IERC721-safeTransferFrom}."
      },
      "setApprovalForAll(address,bool)": {
        "details": "See {IERC721-setApprovalForAll}."
      },
      "supportsInterface(bytes4)": {
        "details": "See {IERC165-supportsInterface}."
      },
      "symbol()": {
        "details": "See {IERC721Metadata-symbol}."
      },
      "tokenURI(uint256)": {
        "details": "See {IERC721Metadata-tokenURI}."
      },
      "transferFrom(address,address,uint256)": {
        "details": "See {IERC721-transferFrom}."
      }
    },
    "version": 1
  },
  "userdoc": {
    "kind": "user",
    "methods": {},
    "notice": "PJT  -  2) NFT Creator          .",
    "version": 1
  }
}